:1000000002000375818E1201F5E582600302006F24
:10001000780079007A007B007C007D00EC4D601C4C
:1000200088828983E493A3A882A9838A828B83F040
:10003000A3AA82AB831CBCFFE31D80E07582007520
:1000400083007C007D00EC4D600AE4F0A31CBCFF43
:10005000F51D80F27582007583007C007D00EC4DFB
:10006000600AE4F0A31CBCFFF51D80F21201F4123B
:1000700004A480FE1B5B324A004144432074657334
:10008000742070726F6772616D0A46696C653A2000
:1000900025730A436F6D70696C65643A2025732C73
:1000A0002025730A0A00433A5C55736572735C320B
:1000B000393737385C4F6E6544726976655C4465E4
:1000C000736B746F705C7365636F6E645F79656189
:1000D000725C454C4543203239315C6C6162355C61
:1000E000656C65635F3239315F6C6162355C6C6190
:1000F00062355F65787472612E63004D61722020F5
:100100003720323032340030313A34353A31380029
:10011000564050312E343D25372E35660D0A005697
:100120004050322E323D25372E35660D0A0050657F
:1001300072696F643D25372E35662075730D0A0090
:100140006672657175656E63793D25372E3566205B
:10015000487A0D0A005065616B2072656620766FE3
:100160006C746167653D25372E356620560D0A0093
:100170005065616B207465737420766F6C74616771
:10018000653D25372E356620560D0A0074696D656C
:100190002064696666203D2025372E3566207573FC
:1001A0000D0A0070686173652064696666203D20F1
:1001B00025372E3566206465670D0A007265663D39
:1001C000252E316620746573743D252E31660A0034
:1001D000252E31667261642066723D252E31662FB0
:1001E0000A00252E31666465672066723D252E3132
:1001F000662F0A002275A7007597DE7597AD75FF0B
:100200008075EF0675A71075C12075A70075A90048
:1002100075A900E5A930E7FB75A90375A903E5A950
:1002200030E7FB43A41075E10175E20075E340750A
:100230009810758DE6858D8B53890F438920D28E5A
:10024000D2997582002275A700C2EF75B28075BC85
:100250002075B91E75E80075DF3F75B300D2EF2237
:10026000AA82438E407592B87593FF8592948593C8
:10027000957591047B00C3EB9A500BE59130E7FB39
:1002800053917F0B80F0759100225389F0438901CF
:10029000C28C22AA82AB837C007D00C3EC9AED9BCA
:1002A000502B7E00BE0400501D7582FAC002C003B0
:1002B000C004C005C006120260D006D005D004D02C
:1002C00003D0020E80DE0CBC00D10D80CE22AA82AB
:1002D0008511F005F07401800225E0D5F0FBFB7577
:1002E000A720BA0002800ABA0102800FBA021E805B
:1002F00014EBF4FA52F1EB42D48012EBF4FA52F21E
:10030000EB42D58008EBF4FA52F3EB42CC75A70030
:10031000228582BBC2EDD2EC30EDFD85BD8285BE6B
:100320008322C2EDD2EC30EDFD85BD8285BE8322F5
:10033000120311120E2FAA82AB83ACF0FDC002C0D3
:1003400003C004C005906C8B75F0537440120E9B73
:10035000AA82AB83ACF0FDE58124FCF581E4C0E02A
:1003600074FCC0E0747FC0E07446C0E08A828B8376
:100370008CF0ED12107AAA82AB83ACF0FDE58124FB
:10038000FCF5818A828B838CF0ED22D2A0758228C5
:10039000120260C2A022AA828AE0A2E79290A2E69C
:1003A0009291A2E59292A2E49293C00212038B75FD
:1003B0008228120260D0028AE0A2E39290A2E29226
:1003C00091A2E19292A2E0929302038BAA82D29729
:1003D0008A82120396900002020293AA82C2978A2E
:1003E00082120396900005020293C2A0900014129C
:1003F00002937582331203DB7582331203DB75823D
:10040000321203DB7582281203DB75820C1203DBC8
:100410007582011203DB900014020293AA82AB835F
:10042000ACF07402B522047DC080027D808D82C054
:1004300002C003C0041203DB900005120293D00433
:10044000D003D0027D007E00ED2AFFEE3BF88C0148
:100450008F82888389F0120E13FF60208F82C00282
:10046000C003C004C005C0061203CCD006D005D01E
:1004700004D003D0020DBD00CF0E80CC3000248DFF
:10048000028E03C3EA9410EB648094805015758249
:1004900020C002C0031203CCD003D0020ABA00E38A
:1004A0000B80E022752700752800752900752A0049
:1004B000752F0075300075310075320012028A9078
:1004C00001F41202937474C0E07400C0E07480C040
:1004D000E0120FB71581158115817407C0E0740112
:1004E000C0E07480C0E074FBC0E07400C0E07480C1
:1004F000C0E074A6C0E07400C0E07480C0E074790D
:10050000C0E07400C0E07480C0E0120FB7E5812441
:10051000F4F5817511047582011202CE7511027510
:1005200082021202CE1202461203EA758A00758C0C
:1005300000C28DE4F549F54A75BB0AC2EDD2EC3034
:10054000EDFD758A00758C00120322E5828583F02B
:1005500045F070F4120322E5828583F045F060F4E3
:10056000D28C120322E5828583F045F070F4C28CB0
:10057000858C82120F3EAE82AF83A8F0F9C006C010
:1005800007C000C00190000075F0807443120E9BFC
:10059000AE82AF83A8F0F9E58124FCF581AA8A7BBD
:1005A000008A828B83C006C007C000C00112106D94
:1005B000AA82AB83ACF0FDD001D000D007D006C03A
:1005C00002C003C004C0058E828F8388F0E9120F39
:1005D00049AA82AB83ACF0FDE58124FCF581C00221
:1005E000C003C004C005901B0075F0B7744B120E19
:1005F0009BAA82AB83ACF0FDE58124FCF5817440BD
:10060000C0E07454C0E07489C0E0744CC0E08A82D9
:100610008B838CF0ED12107A85823B85833C85F0CC
:100620003DF53EE58124FCF581C03BC03CC03DC0AA
:100630003E90000075F080743F12107AAE82AF8356
:10064000A8F0F9E58124FCF581C006C007C000C010
:100650000190240075F0747449120E9B85823F85C9
:10066000834085F041F542E58124FCF58175820ADD
:1006700012033085822385832485F025F526758233
:100680000F12033085822B85832C85F02DF52EC02B
:1006900023C024C025C0267410C0E07401C0E074DB
:1006A00080C0E0120FB7E58124F9F581C02BC02C82
:1006B000C02DC02E741FC0E07401C0E07480C0E083
:1006C000120FB7E58124F9F581C03BC03CC03DC0A5
:1006D0003E742EC0E07401C0E07480C0E0120FB719
:1006E000E58124F9F581C03FC040C041C04274405B
:1006F000C0E07401C0E07480C0E0120FB7E581244F
:10070000F9F58175820A120330AE82AF83A8F0F941
:10071000EE4F4889F0C2F745F070E875820A12037F
:1007200030AE82AF83A8F0F9EE4F4889F0C2F745AA
:10073000F060E8E4F543F544854382854483121074
:100740006DA882A983AEF0FFC03BC03CC03DC03E57
:10075000888289838EF0EF120E6BAE82E58124FCD5
:10076000F581EE605375820A120330AE82AF83A822
:10077000F0F9C006C007C000C001C027C028C029CA
:10078000C02A8E828F8388F0E9120E3BAA82E5810F
:1007900024FCF581D001D000D007D006EA60088E95
:1007A000278F288829892A7582011202600543E46F
:1007B000B543020544020738C027C028C029C02A13
:1007C0007455C0E07401C0E07480C0E0120FB7E55A
:1007D0008124F9F581C027C028C029C02A9004F3DC
:1007E00075F035743F120E9B85823385833485F016
:1007F00035F536E58124FCF58175820F120330AAA8
:1008000082AB83ACF0FDEA4B4C8DF0C2F745F07043
:10081000E875820F120330AA82AB83ACF0FDEA4B7D
:100820004C8DF0C2F745F060E8E4F543F5448543AC
:100830008285448312106DAC82AD83AAF0FBC03B6D
:10084000C03CC03DC03E8C828D838AF0EB120E6BA3
:10085000AA82E58124FCF581EA605375820F1203B8
:1008600030AE82AF83A8F0F9C006C007C000C00157
:10087000C02FC030C031C0328E828F8388F0E91221
:100880000E3BAA82E58124FCF581D001D000D0077F
:10089000D006EA60088E2F8F308831893275820148
:1008A0001202600543E4B54302054402082EC02F3E
:1008B000C030C031C0327470C0E07401C0E07480D8
:1008C000C0E0120FB7E58124F9F581C02FC030C018
:1008D00031C0329004F375F035743F120E9B85825F
:1008E0003785833885F039F53AE58124FCF5817543
:1008F0008A00758C00C28D75820A120311E582850B
:1009000083F045F070F1C0E0C0E0C0E07440C0E0AA
:10091000853B82853C83853DF0E53E12107AAE82B0
:10092000AF83A8F0F9E58124FCF58175820AC00641
:10093000C007C000C001120311E5828583F0D00119
:10094000D000D007D00645F070578E828F8388F094
:10095000E9C006C007C000C00112119912026075FB
:10096000820F120330AA82AB83ACF0FDE4C0E0C07A
:10097000E0C0E0C0E08A828B838CF0ED120E3BAACF
:1009800082E58124FCF581D001D000D007D006EAB1
:100990006007E4F549F54A8092754901E4F54A801B
:1009A0008A900001120293758A00758C00C28D7ABC
:1009B000007B007C007D0075820AC002C003C00479
:1009C000C005120311E5828583F0D005D004D00361
:1009D000D00245F070E175820AC002C003C004C0B5
:1009E00005120311E5828583F0D005D004D003D031
:1009F0000245F060E175820AC002C003C004C00570
:100A0000120311E5828583F0D005D004D003D00213
:100A100045F0607075820FC002C003C004C00512AB
:100A20000311E5828583F0D005D004D003D00245C0
:100A3000F0704C75820AC002C003C004C0051203E6
:100A400011E5828583F0D005D004D003D00245F0B3
:100A5000602DD28C108D0280BBE4C0E0C0E07480B9
:100A6000C0E0743FC0E08A828B838CF0ED120F49A6
:100A7000AA82AB83ACF0FDE58124FCF5818095C2B0
:100A80008C0209F5C002C003C004C00590000075C7
:100A9000F0807447120E9BAA82AB83ACF0FDE58117
:100AA00024FCF581858C82C002C003C004C00512FD
:100AB0000F3EAE82AF83A8F0F9C006C007C000C0E9
:100AC0000190000075F0807443120E9BAE82AF83DC
:100AD000A8F0F9E58124FCF581D005D004D003D03D
:100AE00002C006C007C000C0018A828B838CF0ED73
:100AF000120F49AA82AB83ACF0FDE58124FCF5819D
:100B0000AE8A7F008E828F83C002C003C004C005FE
:100B100012106DAE82AF83A8F0F9D005D004D003D7
:100B2000D002C006C007C000C0018A828B838CF04F
:100B3000ED120F49AA82AB83ACF0FDE58124FCF5F0
:100B400081C002C003C004C00590AAAB75F02A742E
:100B50003E120E9B85824585834685F047F548E524
:100B60008124FCF581E549454A7041C045C046C035
:100B700047C04890000075F0B47443120E9BAE82DB
:100B8000AF83A8F0F9E58124FCF581C03BC03CC0EF
:100B90003DC03E8E828F8388F0E912107AAE82AF1C
:100BA00083A8F0F9E58124FCF581803FC045C0466B
:100BB000C047C04890000075F0B474C3120E9BAAE1
:100BC00082AB83ACF0FDE58124FCF581C03BC03CE9
:100BD000C03DC03E8A828B838CF0ED12107AAE82CB
:100BE000AF83A8F0F9E58124FCF581C006C007C0F9
:100BF00000C001C045C046C047C048748CC0E07406
:100C000001C0E07480C0E0120FB7E58124F9F581DE
:100C1000D001D000D007D006C006C007C000C00178
:100C2000C006C007C000C00174A3C0E07401C0E0EA
:100C30007480C0E0120FB7E58124F9F581D001D0AE
:100C400000D007D00630A303020D82900032C00608
:100C5000C007C000C001120293D001D000D007D05D
:100C60000630A303020D82C006C007C000C001C049
:100C700006C007C000C001900FDB75F04974401238
:100C80000E9BAA82AB83ACF0FDE58124FCF581E4E8
:100C9000C0E0C0E07434C0E07443C0E08A828B835B
:100CA0008CF0ED12107AAA82AB83ACF0FDE58124C2
:100CB000FCF581D001D000D007D00630A303020D8F
:100CC00082C002C003C004C005C006C007C000C087
:100CD00001C037C038C039C03AC033C034C035C095
:100CE0003674BCC0E07401C0E07480C0E0744BC0D6
:100CF000E07400C0E07440C0E0121027E58124F2E7
:100D0000F581752201D20090004B75F04012041C51
:100D1000D001D000D007D006D005D004D003D00237
:100D2000C002C003C004C005C006C007C000C001A7
:100D3000C03FC040C041C042C002C003C004C005A3
:100D400074D0C0E07401C0E07480C0E0745CC0E0A6
:100D50007400C0E07440C0E0121027E58124F2F571
:100D600081752202D20090005C75F04012041CD004
:100D700001D000D007D006D005D004D003D00202A5
:100D80000CBBC006C007C000C001C037C038C039A6
:100D9000C03AC033C034C035C03674BCC0E0740142
:100DA000C0E07480C0E0744BC0E07400C0E07440E8
:100DB000C0E0121027E58124F2F581752201D200EE
:100DC00090004B75F04012041CD001D000D007D029
:100DD00006C03FC040C041C042C006C007C000C0FE
:100DE0000174E2C0E07401C0E07480C0E0745CC0D3
:100DF000E07400C0E07440C0E0121027E58124F2E6
:100E0000F581752202D20090005C75F04012041C3E
:100E100002052B20F71430F6148883A88220F507EA
:100E2000E6A88375830022E280F7E49322E022E4BF
:100E3000AC83AB82FAF9748E0211AAFFA88118184C
:100E40001211D2D2D133E6400730E70B758201226E
:100E500020E70675820022C2D11211B4E97003F5B1
:100E6000822230D101B3E433F58222FFA881181821
:100E70001211D2D2D133E6400730E70B758200223F
:100E800020E70675820122C2D11211B4E97003F580
:100E9000822220D101B3E433F5822212127FBC00FA
:100EA0000302121EEF60FA30D502B2D1E583B4FF1F
:100EB00003021234E582B4FF030212342583400793
:100EC0002482400B02121E2483145003021234F5B4
:100ED00082EA8DF0A4A8F0EA8EF0A428F8E435F0B8
:100EE000F9EB8DF0A428E935F0F9E433CA8FF0A4CA
:100EF00029F9EA35F0FAEBF88EF0A429F9EA35F091
:100F0000FAE433FBEC8DF0A429F9EA35F0FAE43B7E
:100F1000FBE88FF0A42AFAEB35F0FBE433CCFD8E2E
:100F2000F0A42AFAEB35F0FBE43CFCED8FF0A42BA7
:100F3000FBEC35F0FC20E70312124C0211FDE4AC8F
:100F400082FBFAF974860211AA12127F7900E583F6
:100F5000B58202800D50031212ADE583C395821253
:100F600012C7E5D0C465D020E117EA2DFAEB3EFBAD
:100F7000EC3FFC500974011212C7EC4480FC0211D2
:100F8000FDC3EA9DFAEB9EFBEC9FFC500FC3E49976
:100F9000F9E49AFAE49BFBE49CFCB2D112124C02F5
:100FA00011FD021C9685827B85837C85F07D8510F2
:100FB0007E900FA20216E9C008858108E50824FB8F
:100FC000F57EE50824FBF8867B08867C08867D9004
:100FD0000FA21216E9D00822AA82AB09AC0AAD0B07
:100FE0008B828C838DF0EA121CAB0509E4B50902F3
:100FF000050A2285820985830A85F00B850C7B858D
:101000000D7C850E7D850F7E900FD81216E9AA8281
:10101000AB83AC09AD0AAE0B8C828D838EF0E412EB
:101020001CAB8A828B8322C008858108E50824F8DE
:10103000F57EE50824FBF8860908860A08860BE594
:101040000824F8F8867B08867C08867D900FD812E5
:1010500016E9AA82AB83AC09AD0AAE0B8C828D83F4
:101060008EF0E4121CAB8A828B83D00822AC83AB57
:10107000827A007900748E021CCD12127F30D50264
:10108000B2D1BF0009BC0003021241021234BC00FD
:101090000302121EE583B4FF0BE582B4FF030212C4
:1010A0004102121EE582B4FF03021234C39583503D
:1010B00007247F400B02121E2480145003021234B6
:1010C000C0E0E4CCCBCAF98D118E128F13EF54F02F
:1010D000C4F5147583068514F0EB84F582E9C4F930
:1010E000EAC4FAEBC4FBEC540FC47803D6FC18EB4B
:1010F000D6FB18EAD6FA8582F0EDA4A8F0FD858229
:10110000F0EEA428FEE435F0F88582F0EFA428FF85
:10111000E435F0F8E99DF9EA9EFAEB9FFBEC98FCC8
:10112000AD11AE12AF1330E7101582E92DF9EA3E8A
:10113000FAEB3FFBE43CFC80EDC082D58398C3E929
:1011400033F9EA33FAEB33FBEC33FCC3E99DEA9E57
:10115000EB9FEC9400B3E413F9D002D0E0C44AFA58
:10116000D003D0E0C44BFBD004D0E0F5F0540FC462
:101170004CFCD082158230F40FD3EC13FCEB13FB44
:10118000EA13FAE913F90582E930E70A74012AFA49
:10119000E43BFBE43CFC0212157F86121CF3F58253
:1011A00022FCABF0AA83A982749EC2D1F5821212EE
:1011B0004C0211FD7901AA82E68F82B5821318E6EE
:1011C000B5F00E18E6B5830918E68A82B582027971
:1011D0000022B4800FE5F0700AE5837006E58270A6
:1011E000027F00EFB6801518B6001018B6000B1875
:1011F000B6000608080876002208080822B980030D
:10120000EA13B34010EA2401FAE43BFBE43CFC504F
:10121000047C800582BC000EBB000BBA0008E4F51C
:10122000F0F583F58222A2D1E582138CF092F78B40
:10123000838A8222E4F583F58275F080F4A2D113CB
:1012400022E4F583F58275F0C0747F227804EC7097
:1012500011E58224F8500AF582E4C9CACBFCD8EF24
:1012600022EC7820058220E713D5820122C3E933DE
:10127000F9EA33FAEB33FBEC33FCD8EA158222AA05
:1012800082AB83A2F73392D16002D2F7F582ACF041
:10129000E58124F9F8E6FD08E6FE0886F008E6A2F6
:1012A000F73392D56002D2F7F583AFF022E582C51D
:1012B00083F582A2D133A2D592D11392D5ECCFFC83
:1012C000EBCEFBEACDFA226040F82582500274FF93
:1012D000F582E824F8501ECCCBCAF9E4CC24F850AF
:1012E00014CBCAF9E4CB24F8500BCAF9E4CA24F8A9
:1012F000500379002224086010F8C3EC13FCEB13B0
:10130000FBEA13FAE913F9D8F122AA82741BC0E0B0
:101310007413C0E0C06DC06E8A82220574E4B57497
:1013200002057522AA8274302AFA24C6500A74076C
:101330002AFA3001034302208A8202130AE582FA64
:10134000C4540FF582C002121324D002740F5AF550
:1013500082021324AA6FAB70AC71AD72AE73757A52
:1013600020EE2EFEED235401FF4206EA2AFAEB336B
:10137000FBEC33FCED33FDC3EE95764008EEC395F0
:1013800076FE430201D57AD98A6F8B708C718D728B
:101390008E7322788BE624D075F00AA4FA788CE656
:1013A00024D02AFA788A8603BB2D04C3E49AFA75FE
:1013B0007601C3E464808AF063F08095F05029756B
:1013C0007A038A0374F6257A401C0576E57A14249C
:1013D0007FF8E57A247FF98704A604772E1BEBFAC1
:1013E0006004057A80DE8B02EA30E70D78808603A0
:1013F0007881A6037880762E0AE578600AE578047D
:10140000FB2576F5768005300C020576787F86031D
:10141000E4BB2D0104FB70062007033008020576AB
:101420003005030214DA300657EB600C75822DC0CC
:101430000212130AD002801C30070C75822BC002E6
:1014400012130AD002800D30080A758220C00212E1
:10145000130AD00278808604BC2E0C758230C0023C
:1014600012130AD0021577AC771577C3E5769C4046
:101470000302151E758230C00212130AD00280E7E3
:10148000AC771577C3E5769C500C758220C00212AC
:10149000130AD00280EA787F8604BC2D0C75822D59
:1014A000C00212130AD002801C30070C75822BC0B8
:1014B0000212130AD002800D30080A758220C00281
:1014C00012130AD00278808604BC2E52758230C076
:1014D0000212130AD00215778044EB600E75822D3C
:1014E000C00212130AD0021577802030070E7582D1
:1014F0002BC00212130AD0021577800F30080C752A
:101500008220C00212130AD002157778808603BBAE
:101510002E0C758230C00212130AD0021577757A2C
:1015200001C20EE57A247FF88603BB45030215DB72
:10153000BB2E348A03C3E464808BF063F08095F0A3
:10154000500F758230C00312130AD0031B8B028028
:10155000E48B02D20EE5787038200C030215DB759F
:10156000822E12130A8074300E278A03EB30E71F95
:10157000C3E464808578F063F08095F0500C758248
:1015800030C00312130AD00315780B8B0280DD8B59
:1015900002300E0EC3E464808578F063F08095F02D
:1015A0005021E57A247FF886038B82C00212130A49
:1015B000D002300E0EE57A247FF88603BB2E02801F
:1015C0000215781577C3E464808578F063F0809520
:1015D000F04003200E05057A021523C3E4648085DC
:1015E00078F063F08095F0500A75823012130A1576
:1015F0007880E830050FAA771577EA6008758220B1
:1016000012130A80F122E5787003300C0D7407255F
:1016100078FAE577C39AF5778006E57724FAF577C7
:10162000757A00787F8602BA2B0F20070C787F76B8
:1016300020200805757A010577200519AA77C3E4EB
:1016400064808AF063F08095F0500A75822012134E
:101650000A157780E7C20EE57A247FF88602BA0081
:10166000028069BA451F3001027665C3E464808553
:1016700078F063F08095F0500A75823012130A15E5
:101680007880E8D20EC3E57A9402E433FA7014EA63
:10169000700EC3E464808578F063F08095F04003B9
:1016A000300E16E57A247FF886028A8212130AE544
:1016B0007A24FD50121578800E7402B57A09300C28
:1016C0000675822E12130A057A021657300519AADA
:1016D00077C3E464808AF063F08095F0500A7582E5
:1016E0002012130A157780E72285826D85836EE4C8
:1016F000F574F575AA7BAB7CAC7D8A828B838CF00C
:10170000120E13FD74012AF57BE43BF57C8C7DED14
:10171000FA7003021C8FBA25028003021C87C205DF
:10172000C206C207C208C209C20AC20BC20CC20268
:10173000C203C2047576007577007578FFAB7BAC89
:101740007CAD7D8B828C838DF0120E13FAA3AB825D
:10175000AC838B7B8C7C8D7DBA25078A8212130A21
:1017600080928A06BE3000402E8A06EE24C64027AC
:1017700074FFB57813E57775F00AA4FEEA24D02E3D
:10178000F57770BFD20680BBE57875F00AA4FEEA53
:1017900024D02EF57880ACBA2E0A74FFB578A475E3
:1017A0007800809F8A06BE6100400E8A06EE24857E
:1017B00040075302DFD2018002C201BA20028075C5
:1017C000BA2303021844BA2A03021849BA2B02802A
:1017D0005FBA2D028055BA4202805FBA43030218F5
:1017E0008EBA44030219C9BA45030219E3BA460383
:1017F0000219DFBA47030219E7BA49030219C9BA45
:101800004C02803BBA4E030219EBBA4F030219D0C7
:10181000BA5003021962BA53030218B2BA5503024E
:1018200019D5BA58030219DA021A15D2050217435C
:10183000D207021743D208021743D20A021743D233
:101840000B021743D20C02174374FFB57820300AFD
:101850000BE57E14F8887E8677021743E57E24FE2A
:10186000F8887E8606088607188E77021743300AA6
:101870000BE57E14F8887E8678021743E57E24FE09
:10188000F8887E8606088607188E78021743300A85
:101890000AE57E14F8887E8602800FE57E24FEF835
:1018A000887E8603088604188B028A8212130A0235
:1018B0001A1AE57E24FDF8887E86030886040886C9
:1018C0000518188B6F8C708D718B828C838DF01244
:1018D0001E37AB82AC838B7974FFB578038579783A
:1018E00020051DC3E57995775016E577C39579F501
:1018F00077AB771577EB600875822012130A80F1B9
:10190000856F828570838571F0120E13FBFA602952
:10191000AB781578C3E464808BF063F08095F05069
:10192000188A8212130AAB6FAC70AD710BBB000149
:101930000C8B6F8C708D7180C7200503021A1AC33F
:10194000E57995774003021A1AE577C39579F5771B
:10195000AB771577EB7003021A1A75822012130AFF
:1019600080EEE57E24FDF8887E86030886040886DE
:101970000518188B6F8C708D71E571FB30E7047A58
:10198000438013EB546060047A50800AEB30E60425
:101990007A4980027A588A82C00212130A75823A02
:1019A00012130A75823012130A75827812130AD044
:1019B00002BA4902800BBA50028006857082121367
:1019C0003D856F8212133D8051D20975760A804A97
:1019D000757608804575760A8040757610803BD212
:1019E000028037D2038033D204802FE57E24FDF8B5
:1019F000887E860308860408860518188B6F8C700D
:101A00008D718B828C838DF0E574121CABA3E57510
:101A1000121CAB80058A8212130A200206200303DF
:101A2000300470E57E24FCF8887E8603088604086E
:101A300086050886061818188B6F8C708D718E724B
:101A4000E56FE570E571E5728B828C838DF0EE12A7
:101A50001D1874FFB57803757806300427747F5518
:101A600072FB8B73E573EB2BFB8B73E57130E70631
:101A700074014573F573E573246840067499257302
:101A80004002D2033003061216060216F412139314
:101A90000216F4E57670030216F47B84300A2BE517
:101AA0007E14F8887EE6FC3395E0FDFEFF8C6F8D9A
:101AB000708E718F7220095EAC6F7D007E007F009A
:101AC0008C6F8D708E718F72804C300B1FE57E2471
:101AD000FCF8887E860408860508860608860718AE
:101AE00018188C6F8D708E718F72802AE57E24FE9F
:101AF000F8887E860408860518ED3395E0FEFF8C95
:101B00006F8D708E718F7220090CAC6FAD707E007E
:101B10007F008E718F72300C43E56F4570457145C3
:101B20007260397408B5760C758230C00312130ADE
:101B3000D00380287410B57623758230C003121349
:101B40000AD00330010C758278C00312130AD00347
:101B5000800A758258C00312130AD003300925ACDD
:101B60006FAD70AE71E572FF30E717C3E49CFCE423
:101B70009DFDE49EFEE49FFF8C6F8D708E718F72D1
:101B80008002C209757900D20D8B00757300C00008
:101B9000121354D000200D0DE573C4FCE6FD4CF685
:101BA0001888038002A6730579B20DE56F4570456C
:101BB00071457270D68803E577700375770120064A
:101BC0001A200517E57904FCC39577500E7582201D
:101BD000C00312130AD003157780E930090E75820D
:101BE0002DC00312130AD00315778024E5796020F5
:101BF00030070E75822BC00312130AD003157780AD
:101C00000F30080C758220C00312130AD003157719
:101C100020051EAC771577C3E5799C502730060464
:101C20007C3080027C208C82C00312130AD0038097
:101C3000E2C3E57995775009E577C39579F5778023
:101C4000037577008B00AB791579EB6022B20D201C
:101C50000D0A08E6C4540FFB8B7380078603740FCC
:101C60005BF573857382C000121324D00080D720E7
:101C700005030216F4AB771577EB70030216F475C3
:101C8000822012130A80EE8A8212130A0216F48549
:101C9000748285758322AA82BA0A0810990280FB91
:101CA00075990D10990280FB8A992220F71030F661
:101CB000118883A88220F507F6A88375830022F295
:101CC00080F7F022FCABF0AA83A982749EF582C251
:101CD000D1EC30E716D2D1E9F42401F9EAF434006A
:101CE000FAEBF43400FBECF43400FC12124C021159
:101CF000FD7F9E121E5F30D10302121EC3EF95823C
:101D0000500974FFF5F0F583F5822279001212C7AD
:101D100089828A838BF0EC22C0E0F84582458345B6
:101D2000F07009F5F0FBFCFDFE021DE6E823A2F7CA
:101D300092E0F8A982AA83D2F7ABF07C007E07C3B9
:101D4000749798404074FF2EFE740A89F0A4F985B8
:101D5000F082740A8AF0A4FA85F083740A8BF0A4E6
:101D6000FB740529F9EA3582FAEB3583FB740035FB
:101D7000F0FCC3EC13FCEB13FBEA13FAE913F908CC
:101D8000EC70EF80BAE8C3947FF88B838EF0E4FBAD
:101D9000FCFDFEFF08C3E933F9EA33FAE58333F5C6
:101DA00083EB3BD4FBEC3CD4FCED3DD4FDEE3ED4C8
:101DB000FEEF3FD4FF602D05F074052BD4FBE43C0F
:101DC000D4FCE43DD4FDE43ED4FEE43FD4FF758270
:101DD00004C3EF13FFEE13FEED13FDEC13FCEB1346
:101DE000FBD582EDD8AF787FD0E020E704762B805A
:101DF00002762D087906E7C4540F4430F608B90678
:101E000003762E08E7540F4430F60819B902E77636
:101E10004508E5F020E704762B8004762DF40408CD
:101E200075F00A844430F608E5F04430F608E4F62C
:101E300090007F75F04022AA82AB83ACF07D007EDB
:101E4000008A828B838CF0120E13FFA3AA82AB83CD
:101E5000EF60070DBD00EA0E80E78D828E8322AA17
:101E600082AB83A2F73392D16002D2F7F582ACF055
:101E70002200000000000000000000000000000040
:00000001FF
