:1000000002000375814312012EE582600302006F36
:10001000780079007A007B007C007D00EC4D601C4C
:1000200088828983E493A3A882A9838A828B83F040
:10003000A3AA82AB831CBCFFE31D80E07582007520
:1000400083007C007D00EC4D600AE4F0A31CBCFF43
:10005000F51D80F27582007583007C007D00EC4DFB
:10006000600AE4F0A31CBCFFF51D80F212012D1202
:1000700002C480FE1B5B324A004144432074657316
:10008000742070726F6772616D0A46696C653A2000
:1000900025730A436F6D70696C65643A2025732C73
:1000A0002025730A0A00433A5C55736572735C320B
:1000B000393737385C4F6E6544726976655C4465E4
:1000C000736B746F705C7365636F6E645F79656189
:1000D000725C454C4543203239315C6C6162355C61
:1000E000656C65635F3239315F6C6162355C6C6190
:1000F00062355F312E63004D617220203620323030
:1001000032340031333A30393A32380056405031C7
:100110002E343D25372E35660D0A000D5065726967
:100120006F643D2566206D7320202020002275A776
:10013000007597DE7597AD75FF8075EF0675A71092
:1001400075C12075A70075A90075A900E5A930E75C
:10015000FB75A90375A903E5A930E7FB43A4107556
:10016000E10175E20075E340759810758DE6858DA7
:100170008B53890F438920D28ED2997582002275C4
:10018000A700C2EF75B28075BC2075B91E75E80076
:1001900075DF3F75B300D2EF22AA82438E4075927D
:1001A000B87593FF8592948593957591047B00C3F0
:1001B000EB9A500BE59130E7FB53917F0B80F07584
:1001C0009100225389F0438901C28C22AA82AB8319
:1001D0007C007D00C3EC9AED9B502B7E00BE04009A
:1001E000501D7582FAC002C003C004C005C00612CB
:1001F0000199D006D005D004D003D0020E80DE0CC9
:10020000BC00D10D80CE22AA82851AF005F07401BF
:10021000800225E0D5F0FBFB75A720BA0002800A1A
:10022000BA0102800FBA021E8014EBF4FA52F1EB0D
:1002300042D48012EBF4FA52F2EB42D58008EBF490
:10024000FA52F3EB42CC75A700228582BBC2EDD2F5
:10025000EC30EDFD85BD8285BE8322C2EDD2EC304F
:10026000EDFD85BD8285BE832212024A12055DAA7C
:1002700082AB83ACF0FDC002C003C004C005906C2B
:100280008B75F0537440120569AA82AB83ACF0FD04
:10029000E58124FCF581E4C0E074FCC0E0747FC01B
:1002A000E07446C0E08A828B838CF0ED1206B3AA1C
:1002B00082AB83ACF0FDE58124FCF5818A828B83DF
:1002C0008CF0ED221201C39001F41201CC7474C0C1
:1002D000E07400C0E07480C0E012068515811581CD
:1002E00015817403C0E07401C0E07480C0E074F74D
:1002F000C0E07400C0E07480C0E074A6C0E0740088
:10030000C0E07480C0E07479C0E07400C0E0748024
:10031000C0E0120685E58124F4F581751A04758222
:1003200001120207751A0575820112020712017F78
:1003300075BB0AC2EDD2EC30EDFD758A00758C00FC
:10034000C28D7A007B007C007D00C002C003C00427
:10035000C00512025BE5828583F0D005D004D0038E
:10036000D00245F070E4C002C003C004C005120210
:100370005BE5828583F0D005D004D003D00245F040
:1003800060E4D28CC002C003C004C00512025BE569
:10039000828583F0D005D004D003D00245F0602BD5
:1003A000108D0280DFE4C0E0C0E07480C0E0743FE4
:1003B000C0E08A828B838CF0ED120617AA82AB8391
:1003C000ACF0FDE58124FCF58180B9C002C003C01A
:1003D00004C00512025BE5828583F0D005D004D00D
:1003E00003D00245F0702B108D0280DFE4C0E0C026
:1003F000E07480C0E0743FC0E08A828B838CF0EDB3
:10040000120617AA82AB83ACF0FDE58124FCF581CE
:1004100080B9C28CC002C003C004C0059000007542
:10042000F080744712056985821585831685F0175B
:10043000F518E58124FCF581858C8212060CAE82CC
:10044000AF83AAF0FBC006C007C002C00390000043
:1004500075F0807443120569AA82AB83ACF0FDE5A8
:100460008124FCF581C002C003C004C0058515824B
:100470008516838517F0E518120617858215858382
:100480001685F017F518E58124FCF581AE8A7F000A
:100490008E828F831206A6AE82AF83AAF0FBC006BF
:1004A000C007C002C0038515828516838517F0E555
:1004B00018120617AA82AB83ACF0FDE58124FCF587
:1004C00081C002C003C004C00590F4FC75F0327412
:1004D0003412056985821185831285F013F514E5C0
:1004E0008124FCF58175820A120269AE82AF83AA6B
:1004F000F0FB8E098F0A8A0B8B0CC006C007C00266
:10050000C003740CC0E07401C0E07480C0E0120647
:1005100085E58124F9F581C011C012C013C0149083
:10052000000075F07A7444120569AA82AB83ACF0BE
:10053000FDE58124FCF581C002C003C004C0057440
:100540001BC0E07401C0E07480C0E0120685E58144
:1005500024F9F5819001F41201CC020330E4AC835C
:10056000AB82FAF9748E0207DB120867BC00030243
:100570000806EF60FA30D502B2D1E583B4FF03027A
:10058000081CE582B4FF0302081C2583400724826F
:10059000400B020806248314500302081CF582EA6B
:1005A0008DF0A4A8F0EA8EF0A428F8E435F0F9EB79
:1005B0008DF0A428E935F0F9E433CA8FF0A429F9C5
:1005C000EA35F0FAEBF88EF0A429F9EA35F0FAE40E
:1005D00033FBEC8DF0A429F9EA35F0FAE43BFBE8B3
:1005E0008FF0A42AFAEB35F0FBE433CCFD8EF0A4B7
:1005F0002AFAEB35F0FBE43CFCED8FF0A42BFBEC8E
:1006000035F0FC20E7031208340207E5E4AC82FB76
:10061000FAF974860207DB1208677900E583B58270
:1006200002800D5003120895E583C395821208AF2E
:10063000E5D0C465D020E117EA2DFAEB3EFBEC3F94
:10064000FC500974011208AFEC4480FC0207E5C3BA
:10065000EA9DFAEB9EFBEC9FFC500FC3E499F9E492
:100660009AFAE49BFBE49CFCB2D11208340207E541
:1006700002127E85823085833185F0328519339070
:100680000670020CD1C008858108E50824FBF5330B
:10069000E50824FBF886300886310886329006701B
:1006A000120CD1D00822AC83AB827A007900748E10
:1006B00002129C12086730D502B2D1BF0009BC00FB
:1006C0000302082902081CBC0003020806E583B4E3
:1006D000FF0BE582B4FF03020829020806E582B495
:1006E000FF0302081CC395835007247F400B0208B8
:1006F00006248014500302081CC0E0E4CCCBCAF9E5
:100700008D1A8E1B8F1CEF54F0C4F51D7583068562
:100710001DF0EB84F582E9C4F9EAC4FAEBC4FBEC02
:10072000540FC47803D6FC18EBD6FB18EAD6FA852A
:1007300082F0EDA4A8F0FD8582F0EEA428FEE43559
:10074000F0F88582F0EFA428FFE435F0F8E99DF990
:10075000EA9EFAEB9FFBEC98FCAD1AAE1BAF1C3087
:10076000E7101582E92DF9EA3EFAEB3FFBE43CFC89
:1007700080EDC082D58398C3E933F9EA33FAEB33CD
:10078000FBEC33FCC3E99DEA9EEB9FEC9400B3E4E1
:1007900013F9D002D0E0C44AFAD003D0E0C44BFB36
:1007A000D004D0E0F5F0540FC44CFCD08215823058
:1007B000F40FD3EC13FCEB13FBEA13FAE913F9057E
:1007C00082E930E70A74012AFAE43BFBE43CFC02CC
:1007D00007FDFCABF0AA83A982749EC2D1F58212F8
:1007E00008340207E5B98003EA13B34010EA240194
:1007F000FAE43BFBE43CFC50047C800582BC000E28
:10080000BB000BBA0008E4F5F0F583F58222A2D113
:10081000E582138CF092F78B838A8222E4F583F5CC
:100820008275F080F4A2D11322E4F583F58275F08D
:10083000C0747F227804EC7011E58224F8500AF528
:1008400082E4C9CACBFCD8EF22EC7820058220E7ED
:1008500013D5820122C3E933F9EA33FAEB33FBEC17
:1008600033FCD8EA158222AA82AB83A2F73392D155
:100870006002D2F7F582ACF0E58124F9F8E6FD08D4
:10088000E6FE0886F008E6A2F73392D56002D2F7BA
:10089000F583AFF022E582C583F582A2D133A2D5DC
:1008A00092D11392D5ECCFFCEBCEFBEACDFA2260CD
:1008B00040F82582500274FFF582E824F8501ECCDF
:1008C000CBCAF9E4CC24F85014CBCAF9E4CB24F811
:1008D000500BCAF9E4CA24F85003790022240860B6
:1008E00010F8C3EC13FCEB13FBEA13FAE913F9D885
:1008F000F122AA827403C0E07409C0E0C022C023C0
:100900008A82220529E4B52902052A22AA827430A6
:100910002AFA24C6500A74072AFA30000343022038
:100920008A820208F2E582FAC4540FF582C00212EC
:10093000090CD002740F5AF58202090CAA24AB25C7
:10094000AC26AD27AE28752F20EE2EFEED235401E8
:10095000FF4206EA2AFAEB33FBEC33FCED33FDC32E
:10096000EE952B4008EEC3952BFE430201D52FD9FF
:100970008A248B258C268D278E28227840E624D049
:1009800075F00AA4FA7841E624D02AFA783F860363
:10099000BB2D04C3E49AFA752B01C3E464808AF08A
:1009A00063F08095F05029752F038A0374F6252F84
:1009B000401C052BE52F142434F8E52F2434F98747
:1009C00004A604772E1BEBFA6004052F80DE8B0251
:1009D000EA30E70D783586037836A6037835762E2B
:1009E0000AE52D600AE52D04FB252BF52B8005304B
:1009F0000B02052B78348603E4BB2D0104FB700643
:100A0000200603300702052B300403020AC230051A
:100A100057EB600C75822DC0021208F2D002801CC8
:100A200030060C75822BC0021208F2D002800D3005
:100A3000070A758220C0021208F2D00278358604B7
:100A4000BC2E0C758230C0021208F2D002152CACFC
:100A50002C152CC3E52B9C4003020B06758230C07D
:100A6000021208F2D00280E7AC2C152CC3E52B9CB7
:100A7000500C758220C0021208F2D00280EA78344D
:100A80008604BC2D0C75822DC0021208F2D00280A3
:100A90001C30060C75822BC0021208F2D002800DA9
:100AA00030070A758220C0021208F2D0027835861B
:100AB00004BC2E52758230C0021208F2D002152CEE
:100AC0008044EB600E75822DC0021208F2D0021530
:100AD0002C802030060E75822BC0021208F2D00244
:100AE000152C800F30070C758220C0021208F2D03E
:100AF00002152C78358603BB2E0C758230C002128D
:100B000008F2D002152C752F01C20DE52F2434F800
:100B10008603BB4503020BC3BB2E348A03C3E464C4
:100B2000808BF063F08095F0500F758230C0031217
:100B300008F2D0031B8B0280E48B02D20DE52D70EE
:100B400038200B03020BC375822E1208F28074301A
:100B50000D278A03EB30E71FC3E46480852DF06323
:100B6000F08095F0500C758230C0031208F2D0036B
:100B7000152D0B8B0280DD8B02300D0EC3E46480DB
:100B8000852DF063F08095F05021E52F2434F88610
:100B9000038B82C0021208F2D002300D0EE52F2422
:100BA00034F88603BB2E028002152D152CC3E46495
:100BB00080852DF063F08095F04003200D05052F12
:100BC000020B0BC3E46480852DF063F08095F05038
:100BD0000A7582301208F2152D80E830040FAA2C15
:100BE000152CEA60087582201208F280F122E52DAA
:100BF0007003300B0D7407252DFAE52CC39AF52CE4
:100C00008006E52C24FAF52C752F0078348602BA7C
:100C10002B0F20060C78347620200705752F010550
:100C20002C200419AA2CC3E464808AF063F0809518
:100C3000F0500A7582201208F2152C80E7C20DE5EB
:100C40002F2434F88602BA00028069BA451F3000AA
:100C5000027665C3E46480852DF063F08095F050E2
:100C60000A7582301208F2152D80E8D20DC3E52FE7
:100C70009402E433FA7014EA700EC3E46480852DA4
:100C8000F063F08095F04003300D16E52F2434F822
:100C900086028A821208F2E52F24FD5012152D805B
:100CA0000E7402B52F09300B0675822E1208F2055C
:100CB0002F020C3F300419AA2CC3E464808AF0632D
:100CC000F08095F0500A7582201208F2152C80E70A
:100CD00022858222858323E4F529F52AAA30AB31C7
:100CE000AC328A828B838CF01212C0FD74012AF51B
:100CF00030E43BF5318C32EDFA7003021277BA25FD
:100D000002800302126FC204C205C206C207C208F3
:100D1000C209C20AC20BC201C202C203752B00750E
:100D20002C00752DFFAB30AC31AD328B828C838DB6
:100D3000F01212C0FAA3AB82AC838B308C318D32AF
:100D4000BA25078A821208F280928A06BE300040D5
:100D50002E8A06EE24C6402774FFB52D13E52C75A8
:100D6000F00AA4FEEA24D02EF52C70BFD20580BB79
:100D7000E52D75F00AA4FEEA24D02EF52D80ACBA3C
:100D80002E0A74FFB52DA4752D00809F8A06BE61C2
:100D900000400E8A06EE248540075302DFD2008011
:100DA00002C200BA20028075BA2303020E2CBA2AAE
:100DB00003020E31BA2B02805FBA2D028055BA426F
:100DC00002805FBA4303020E76BA4403020FB1BA3F
:100DD0004503020FCBBA4603020FC7BA4703020FFF
:100DE000CFBA4903020FB1BA4C02803BBA4E03029C
:100DF0000FD3BA4F03020FB8BA5003020F4ABA53C7
:100E000003020E9ABA5503020FBDBA5803020FC26D
:100E1000020FFDD204020D2BD206020D2BD20702C7
:100E20000D2BD209020D2BD20A020D2BD20B020D73
:100E30002B74FFB52D2030090BE53314F888338669
:100E40002C020D2BE53324FEF8883386060886072E
:100E5000188E2C020D2B30090BE53314F8883386DD
:100E60002D020D2BE53324FEF8883386060886070D
:100E7000188E2D020D2B30090AE53314F8883386BD
:100E800002800FE53324FEF88833860308860418B1
:100E90008B028A821208F2021002E53324FDF888E0
:100EA00033860308860408860518188B248C258D44
:100EB000268B828C838DF0121414AB82AC838B2E24
:100EC00074FFB52D03852E2D20041DC3E52E952C12
:100ED0005016E52CC3952EF52CAB2C152CEB600889
:100EE0007582201208F280F185248285258385266B
:100EF000F01212C0FBFA6029AB2D152DC3E46480FB
:100F00008BF063F08095F050188A821208F2AB24BF
:100F1000AC25AD260BBB00010C8B248C258D2680C7
:100F2000C7200403021002C3E52E952C40030210D3
:100F300002E52CC3952EF52CAB2C152CEB7003027F
:100F400010027582201208F280EEE53324FDF88845
:100F500033860308860408860518188B248C258D93
:100F600026E526FB30E7047A438013EB54606004E7
:100F70007A50800AEB30E6047A4980027A588A82F5
:100F8000C0021208F275823A1208F2758230120815
:100F9000F27582781208F2D002BA4902800BBA5078
:100FA0000280068525821209258524821209258062
:100FB00051D208752B0A804A752B088045752B0A7B
:100FC0008040752B10803BD2018037D2028033D213
:100FD00003802FE53324FDF8883386030886040850
:100FE000860518188B248C258D268B828C838DF09A
:100FF000E5291213FBA3E52A1213FB80058A82124E
:1010000008F2200106200203300370E53324FCF8C7
:10101000883386030886040886050886061818188B
:101020008B248C258D268E27E524E525E526E527CE
:101030008B828C838DF0EE1212DC74FFB52D03755C
:101040002D06300327747F5527FB8B28E528EB2BD3
:10105000FB8B28E52630E70674014528F528E528AE
:1010600024684006749925284002D20230020612F4
:101070000BEE020CDC12097B020CDCE52B70030288
:101080000CDC7B3930092BE53314F88833E6FC336C
:1010900095E0FDFEFF8C248D258E268F2720085E8F
:1010A000AC247D007E007F008C248D258E268F272A
:1010B000804C300A1FE53324FCF888338604088608
:1010C000050886060886071818188C248D258E2694
:1010D0008F27802AE53324FEF888338604088605A6
:1010E00018ED3395E0FEFF8C248D258E268F27206A
:1010F000080CAC24AD257E007F008E268F27300B98
:1011000043E52445254526452760397408B52B0C51
:10111000758230C0031208F2D00380287410B52BFA
:1011200023758230C0031208F2D00330000C7582A0
:1011300078C0031208F2D003800A758258C00312E7
:1011400008F2D003300825AC24AD25AE26E527FFF4
:1011500030E717C3E49CFCE49DFDE49EFEE49FFFA2
:101160008C248D258E268F278002C208752E00D2F2
:101170000C8B00752800C00012093CD000200C0D1B
:10118000E528C4FCE6FD4CF61888038002A6280575
:101190002EB20CE52445254526452770D68803E563
:1011A0002C7003752C0120051A200417E52E04FC71
:1011B000C3952C500E758220C0031208F2D003157F
:1011C0002C80E930080E75822DC0031208F2D0037E
:1011D000152C8024E52E602030060E75822BC0036E
:1011E0001208F2D003152C800F30070C758220C036
:1011F000031208F2D003152C20041EAC2C152CC3AE
:10120000E52E9C50273005047C3080027C208C82A7
:10121000C0031208F2D00380E2C3E52E952C5009DA
:10122000E52CC3952EF52C8003752C008B00AB2E7E
:10123000152EEB6022B20C200C0A08E6C4540FFBFA
:101240008B2880078603740F5BF528852882C000F1
:1012500012090CD00080D7200403020CDCAB2C1543
:101260002CEB7003020CDC7582201208F280EE8AEF
:10127000821208F2020CDC852982852A8322AA8246
:10128000BA0A0810990280FB75990D10990280FB2B
:101290008A9922FCABF0AA83A982749EF582C2D1FE
:1012A000EC30E716D2D1E9F42401F9EAF43400FA7B
:1012B000EBF43400FBECF43400FC1208340207E5D4
:1012C00020F71430F6148883A88220F507E6A88357
:1012D00075830022E280F7E49322E022C0E0F84523
:1012E00082458345F07009F5F0FBFCFDFE0213AA70
:1012F000E823A2F792E0F8A982AA83D2F7ABF07CA8
:10130000007E07C3749798404074FF2EFE740A89CC
:10131000F0A4F985F082740A8AF0A4FA85F0837447
:101320000A8BF0A4FB740529F9EA3582FAEB3583C0
:10133000FB740035F0FCC3EC13FCEB13FBEA13FA6F
:10134000E913F908EC70EF80BAE8C3947FF88B8357
:101350008EF0E4FBFCFDFEFF08C3E933F9EA33FA43
:10136000E58333F583EB3BD4FBEC3CD4FCED3DD47F
:10137000FDEE3ED4FEEF3FD4FF602D05F074052B4B
:10138000D4FBE43CD4FCE43DD4FDE43ED4FEE43F95
:10139000D4FF758204C3EF13FFEE13FEED13FDECD3
:1013A00013FCEB13FBD582EDD8AF7834D0E020E707
:1013B00004762B8002762D087906E7C4540F44305A
:1013C000F608B90603762E08E7540F4430F60819DC
:1013D000B902E7764508E5F020E704762B8004762D
:1013E0002DF4040875F00A844430F608E5F0443022
:1013F000F608E4F690003475F0402220F71030F63D
:10140000118883A88220F507F6A88375830022F24D
:1014100080F7F022AA82AB83ACF07D007E008A8246
:101420008B838CF01212C0FFA3AA82AB83EF6007FC
:101430000DBD00EA0E80E78D828E83220000000041
:00000001FF
