:1000000002000375818E1201DDE582600302006F3C
:10001000780079007A007B007C007D00EC4D601C4C
:1000200088828983E493A3A882A9838A828B83F040
:10003000A3AA82AB831CBCFFE31D80E07582007520
:1000400083007C007D00EC4D600AE4F0A31CBCFF43
:10005000F51D80F27582007583007C007D00EC4DFB
:10006000600AE4F0A31CBCFFF51D80F21201DC1253
:10007000048C80FE1B5B324A00414443207465734C
:10008000742070726F6772616D0A46696C653A2000
:1000900025730A436F6D70696C65643A2025732C73
:1000A0002025730A0A00433A5C55736572735C320B
:1000B000393737385C4F6E6544726976655C4465E4
:1000C000736B746F705C7365636F6E645F79656189
:1000D000725C454C4543203239315C6C6162355C61
:1000E000656C65635F3239315F6C6162355C6C6190
:1000F00062352E63004D6172202037203230323459
:100100000030303A31343A333600564050312E34D4
:100110003D25372E35660D0A00564050322E323DB1
:1001200025372E35660D0A00506572696F643D25CE
:10013000372E35662075730D0A0066726571756518
:100140006E63793D25372E356620487A0D0A0050BA
:1001500065616B2072656620766F6C746167653DC2
:1001600025372E356620560D0A005065616B2074C8
:1001700065737420766F6C746167653D25372E3525
:100180006620560D0A0074696D65206469666620F4
:100190003D2025372E35662075730D0A0070686185
:1001A00073652064696666203D2025372E356620FC
:1001B0006465670D0A007265663D252E3166207400
:1001C0006573743D252E31660A0070683D252E3119
:1001D000662066723D252E31662F0A002275A70023
:1001E0007597DE7597AD75FF8075EF0675A710756D
:1001F000C12075A70075A90075A900E5A930E7FB26
:1002000075A90375A903E5A930E7FB43A41075E1BF
:100210000175E20075E340759810758DE6858D8B4C
:1002200053890F438920D28ED2997582002275A7F7
:1002300000C2EF75B28075BC2075B91E75E80075F7
:10024000DF3F75B300D2EF22AA82438E407592B889
:100250007593FF8592948593957591047B00C3EB0C
:100260009A500BE59130E7FB53917F0B80F075912D
:1002700000225389F0438901C28C22AA82AB837C7D
:10028000007D00C3EC9AED9B502B7E00BE04005015
:100290001D7582FAC002C003C004C005C006120268
:1002A00048D006D005D004D003D0020E80DE0CBCAE
:1002B00000D10D80CE22AA828511F005F074018054
:1002C0000225E0D5F0FBFB75A720BA0002800ABA30
:1002D0000102800FBA021E8014EBF4FA52F1EB42D5
:1002E000D48012EBF4FA52F2EB42D58008EBF4FA28
:1002F00052F3EB42CC75A700228582BBC2EDD2EC53
:1003000030EDFD85BD8285BE8322C2EDD2EC30ED9D
:10031000FD85BD8285BE83221202F9120CCAAA8213
:10032000AB83ACF0FDC002C003C004C005906C8B71
:1003300075F0537440120D36AA82AB83ACF0FDE524
:100340008124FCF581E4C0E074FCC0E0747FC0E06F
:100350007446C0E08A828B838CF0ED120F15AA825E
:10036000AB83ACF0FDE58124FCF5818A828B838C24
:10037000F0ED22D2A0758228120248C2A022AA82E1
:100380008AE0A2E79290A2E69291A2E59292A2E47C
:100390009293C002120373758228120248D0028A17
:1003A000E0A2E39290A2E29291A2E19292A2E09264
:1003B00093020373AA82D2978A8212037E9000026C
:1003C00002027BAA82C2978A8212037E90000502F3
:1003D000027BC2A090001412027B7582331203C309
:1003E0007582331203C37582321203C375822812D9
:1003F00003C375820C1203C37582011203C39000FC
:100400001402027BAA82AB83ACF07402B522047D95
:10041000C080027D808D82C002C003C0041203C36D
:1004200090000512027BD004D003D0027D007E0034
:10043000ED2AFFEE3BF88C018F82888389F0120C45
:10044000AEFF60208F82C002C003C004C005C0069A
:100450001203B4D006D005D004D003D0020DBD00E5
:10046000CF0E80CC3000248D028E03C3EA9410EBB3
:10047000648094805015758220C002C0031203B4BA
:10048000D003D0020ABA00E30B80E0227527007582
:100490002800752900752A00752F00753000753108
:1004A000007532001202729001F412027B7474C063
:1004B000E07400C0E07480C0E0120E521581158116
:1004C00015817401C0E07401C0E07480C0E074F56F
:1004D000C0E07400C0E07480C0E074A6C0E07400A6
:1004E000C0E07480C0E07479C0E07400C0E0748043
:1004F000C0E0120E52E58124F4F581751104758275
:10050000011202B67511027582021202B612022E93
:100510001203D2758A00758C00C28DE4F549F54A44
:1005200075BB0AC2EDD2EC30EDFD758A00758C000A
:1005300012030AE5828583F045F070F412030AE5A0
:10054000828583F045F060F4D28C12030AE582853F
:1005500083F045F070F4C28C858C82120DD9AE8286
:10056000AF83A8F0F9C006C007C000C0019000002A
:1005700075F0807443120D36AE82AF83A8F0F9E5B2
:100580008124FCF581AA8A7B008A828B83C006C005
:1005900007C000C001120F08AA82AB83ACF0FDD0E7
:1005A00001D000D007D006C002C003C004C0058E31
:1005B000828F8388F0E9120DE4AA82AB83ACF0FD50
:1005C000E58124FCF581C002C003C004C005901B76
:1005D0000075F0B7744B120D36AA82AB83ACF0FDF8
:1005E000E58124FCF5817440C0E07454C0E0748956
:1005F000C0E0744CC0E08A828B838CF0ED120F1542
:1006000085823B85833C85F03DF53EE58124FCF504
:1006100081C03BC03CC03DC03E90000075F080747E
:100620003F120F15AE82AF83A8F0F9E58124FCF5E7
:1006300081C006C007C000C00190240075F074742A
:1006400049120D3685823F85834085F041F542E5AC
:100650008124FCF58175820A120318858223858323
:100660002485F025F52675820F12031885822B85C7
:10067000832C85F02DF52EC023C024C025C0267400
:100680000AC0E07401C0E07480C0E0120E52E5813F
:1006900024F9F581C02BC02CC02DC02E7419C0E0E8
:1006A0007401C0E07480C0E0120E52E58124F9F5B7
:1006B00081C03BC03CC03DC03E7428C0E07401C056
:1006C000E07480C0E0120E52E58124F9F581C03F4C
:1006D000C040C041C042743AC0E07401C0E07480C0
:1006E000C0E0120E52E58124F9F58175820A1203E9
:1006F00018AE82AF83A8F0F9EE4F4889F0C2F745F3
:10070000F070E875820A120318AE82AF83A8F0F980
:10071000EE4F4889F0C2F745F060E8E4F543F54450
:10072000854382854483120F08A882A983AEF0FF17
:10073000C03BC03CC03DC03E888289838EF0EF1232
:100740000D06AE82E58124FCF581EE605375820AC8
:10075000120318AE82AF83A8F0F9C006C007C0002C
:10076000C001C027C028C029C02A8E828F8388F08C
:10077000E9120CD6AA82E58124FCF581D001D000D3
:10078000D007D006EA60088E278F288829892A7525
:1007900082011202480543E4B543020544020720E2
:1007A000C027C028C029C02A744FC0E07401C0E02F
:1007B0007480C0E0120E52E58124F9F581C027C093
:1007C00028C029C02A9004F375F035743F120D3605
:1007D00085823385833485F035F536E58124FCF553
:1007E0008175820F120318AA82AB83ACF0FDEA4B2D
:1007F0004C8DF0C2F745F070E875820F120318AA0D
:1008000082AB83ACF0FDEA4B4C8DF0C2F745F06053
:10081000E8E4F543F544854382854483120F08AC30
:1008200082AD83AAF0FBC03BC03CC03DC03E8C8281
:100830008D838AF0EB120D06AA82E58124FCF581F6
:10084000EA605375820F120318AE82AF83A8F0F9E5
:10085000C006C007C000C001C02FC030C031C032C8
:100860008E828F8388F0E9120CD6AA82E58124FC5F
:10087000F581D001D000D007D006EA60088E2F8F16
:1008800030883189327582011202480543E4B5434C
:10089000020544020816C02FC030C031C032746A4D
:1008A000C0E07401C0E07480C0E0120E52E5812403
:1008B000F9F581C02FC030C031C0329004F375F01B
:1008C00035743F120D3685823785833885F039F5CA
:1008D0003AE58124FCF581758A00758C00C28D751E
:1008E000820A1202F9E5828583F045F070F1C0E0DA
:1008F000C0E0C0E07440C0E0853B82853C83853D1C
:10090000F0E53E120F15AE82AF83A8F0F9E5812421
:10091000FCF58175820AC006C007C000C001120242
:10092000F9E5828583F0D001D000D007D00645F0EC
:1009300070578E828F8388F0E9C006C007C000C060
:100940000112103412024875820F120318AA82ABEA
:1009500083ACF0FDE4C0E0C0E0C0E0C0E08A828B80
:10096000838CF0ED120CD6AA82E58124FCF581D0AF
:1009700001D000D007D006EA6007E4F549F54A80C7
:1009800092754901E4F54A808A90000112027B7554
:100990008A00758C00C28D7A007B007C007D00751A
:1009A000820AC002C003C004C0051202F9E58285B4
:1009B00083F0D005D004D003D00245F070E17582F9
:1009C0000AC002C003C004C0051202F9E582858393
:1009D000F0D005D004D003D00245F060E175820A62
:1009E000C002C003C004C0051202F9E5828583F08D
:1009F000D005D004D003D00245F0607075820FC0DE
:100A000002C003C004C0051202F9E5828583F0D05C
:100A100005D004D003D00245F0704C75820AC002A4
:100A2000C003C004C0051202F9E5828583F0D00539
:100A3000D004D003D00245F0602DD28C108D0280FE
:100A4000BBE4C0E0C0E07480C0E0743FC0E08A82D4
:100A50008B838CF0ED120DE4AA82AB83ACF0FDE544
:100A60008124FCF5818095C28C0209DDC002C0039F
:100A7000C004C00590000075F0807447120D36AABE
:100A800082AB83ACF0FDE58124FCF581858C82C0CE
:100A900002C003C004C005120DD9AE82AF83A8F016
:100AA000F9C006C007C000C00190000075F0807456
:100AB00043120D36AE82AF83A8F0F9E58124FCF530
:100AC00081D005D004D003D002C006C007C000C04A
:100AD000018A828B838CF0ED120DE4AA82AB83AC89
:100AE000F0FDE58124FCF581AE8A7F008E828F8344
:100AF000C002C003C004C005120F08AE82AF83A8B5
:100B0000F0F9D005D004D003D002C006C007C00061
:100B1000C0018A828B838CF0ED120DE4AA82AB8334
:100B2000ACF0FDE58124FCF581C002C003C004C027
:100B30000590AAAB75F02A743E120D368582458564
:100B4000834685F047F548E58124FCF581E5494574
:100B50004A7041C045C046C047C04890000075F08B
:100B6000B47443120D36AE82AF83A8F0F9E5812448
:100B7000FCF581C03BC03CC03DC03E8E828F838867
:100B8000F0E9120F15AE82AF83A8F0F9E58124FCDD
:100B9000F581803FC045C046C047C0489000007501
:100BA000F0B474C3120D36AA82AB83ACF0FDE581BC
:100BB00024FCF581C03BC03CC03DC03E8A828B8393
:100BC0008CF0ED120F15AE82AF83A8F0F9E5812409
:100BD000FCF581C006C007C000C001C045C046C0CA
:100BE00047C0487486C0E07401C0E07480C0E01261
:100BF0000E52E58124F9F581D001D000D007D0064E
:100C0000C006C007C000C001C006C007C000C001C8
:100C1000749DC0E07401C0E07480C0E0120E52E523
:100C20008124F9F581C037C038C039C03AC033C01B
:100C300034C035C03674B6C0E07401C0E07480C002
:100C4000E0744BC0E07400C0E07440C0E0120EC21B
:100C5000E58124F2F581752201D20090004B75F0F8
:100C600040120404D001D000D007D006C03FC040DD
:100C7000C041C042C006C007C000C00174CAC0E085
:100C80007401C0E07480C0E0745CC0E07400C0E037
:100C90007440C0E0120EC2E58124F2F58175220293
:100CA000D20090005C75F04012040402051320F796
:100CB0001430F6148883A88220F507E6A88375838C
:100CC0000022E280F7E49322E022E4AC83AB82FAD4
:100CD000F9748E021045FFA881181812106DD2D138
:100CE00033E6400730E70B7582012220E706758264
:100CF0000022C2D112104FE97003F5822230D101D7
:100D0000B3E433F58222FFA881181812106DD2D1F6
:100D100033E6400730E70B7582002220E706758234
:100D20000122C2D112104FE97003F5822220D101B5
:100D3000B3E433F5822212111ABC00030210B9EF9A
:100D400060FA30D502B2D1E583B4FF030210CFE5DB
:100D500082B4FF030210CF258340072482400B0298
:100D600010B924831450030210CFF582EA8DF0A449
:100D7000A8F0EA8EF0A428F8E435F0F9EB8DF0A4A1
:100D800028E935F0F9E433CA8FF0A429F9EA35F0FF
:100D9000FAEBF88EF0A429F9EA35F0FAE433FBEC2B
:100DA0008DF0A429F9EA35F0FAE43BFBE88FF0A4D2
:100DB0002AFAEB35F0FBE433CCFD8EF0A42AFAEBF3
:100DC00035F0FBE43CFCED8FF0A42BFBEC35F0FCA4
:100DD00020E7031210E7021098E4AC82FBFAF974E2
:100DE0008602104512111A7900E583B58202800D42
:100DF0005003121148E583C39582121162E5D0C4F5
:100E000065D020E117EA2DFAEB3EFBEC3FFC5009E0
:100E10007401121162EC4480FC021098C3EA9DFA3E
:100E2000EB9EFBEC9FFC500FC3E499F9E49AFAE4C3
:100E30009BFBE49CFCB2D11210E7021098021B311C
:100E400085827B85837C85F07D85107E900E3D02BA
:100E50001584C008858108E50824FBF57EE5082493
:100E6000FBF8867B08867C08867D900E3D121584F3
:100E7000D00822AA82AB09AC0AAD0B8B828C838D81
:100E8000F0EA121B460509E4B50902050A2285822B
:100E90000985830A85F00B850C7B850D7C850E7D8D
:100EA000850F7E900E73121584AA82AB83AC09ADB8
:100EB0000AAE0B8C828D838EF0E4121B468A828BE5
:100EC0008322C008858108E50824F8F57EE508241A
:100ED000FBF8860908860A08860BE50824F8F886D8
:100EE0007B08867C08867D900E73121584AA82ABDF
:100EF00083AC09AD0AAE0B8C828D838EF0E4121B9D
:100F0000468A828B83D00822AC83AB827A00790038
:100F1000748E021B6812111A30D502B2D1BF0009BB
:100F2000BC00030210DC0210CFBC00030210B9E5C4
:100F300083B4FF0BE582B4FF030210DC0210B9E5B5
:100F400082B4FF030210CFC395835007247F400B68
:100F50000210B924801450030210CFC0E0E4CCCBBF
:100F6000CAF98D118E128F13EF54F0C4F5147583E6
:100F7000068514F0EB84F582E9C4F9EAC4FAEBC4FF
:100F8000FBEC540FC47803D6FC18EBD6FB18EAD65A
:100F9000FA8582F0EDA4A8F0FD8582F0EEA428FE8B
:100FA000E435F0F88582F0EFA428FFE435F0F8E9A5
:100FB0009DF9EA9EFAEB9FFBEC98FCAD11AE12AFE7
:100FC0001330E7101582E92DF9EA3EFAEB3FFBE416
:100FD0003CFC80EDC082D58398C3E933F9EA33FA4B
:100FE000EB33FBEC33FCC3E99DEA9EEB9FEC9400F2
:100FF000B3E413F9D002D0E0C44AFAD003D0E0C47D
:101000004BFBD004D0E0F5F0540FC44CFCD082155B
:101010008230F40FD3EC13FCEB13FBEA13FAE91361
:10102000F90582E930E70A74012AFAE43BFBE43C63
:10103000FC0210B07F86121B8EF58222FCABF0AA58
:1010400083A982749EC2D1F5821210E702109879AA
:1010500001AA82E68F82B5821318E6B5F00E18E673
:10106000B5830918E68A82B58202790022B4800F1E
:10107000E5F0700AE5837006E58270027F00EFB646
:10108000801518B6001018B6000B18B60006080830
:101090000876002208080822B98003EA13B340103A
:1010A000EA2401FAE43BFBE43CFC50047C8005822A
:1010B000BC000EBB000BBA0008E4F5F0F583F58226
:1010C00022A2D1E582138CF092F78B838A8222E4EC
:1010D000F583F58275F080F4A2D11322E4F583F54F
:1010E0008275F0C0747F227804EC7011E58224F8D8
:1010F000500AF582E4C9CACBFCD8EF22EC7820056F
:101100008220E713D5820122C3E933F9EA33FAEBEF
:1011100033FBEC33FCD8EA158222AA82AB83A2F718
:101120003392D16002D2F7F582ACF0E58124F9F870
:10113000E6FD08E6FE0886F008E6A2F73392D560E1
:1011400002D2F7F583AFF022E582C583F582A2D102
:1011500033A2D592D11392D5ECCFFCEBCEFBEACDE6
:10116000FA226040F82582500274FFF582E824F8E4
:10117000501ECCCBCAF9E4CC24F85014CBCAF9E405
:10118000CB24F8500BCAF9E4CA24F85003790022A2
:1011900024086010F8C3EC13FCEB13FBEA13FAE924
:1011A00013F9D8F122AA8274B6C0E07411C0E0C06D
:1011B0006DC06E8A82220574E4B57402057522AA98
:1011C0008274302AFA24C6500A74072AFA300103BE
:1011D0004302208A820211A5E582FAC4540FF582E7
:1011E000C0021211BFD002740F5AF5820211BFAAB9
:1011F0006FAB70AC71AD72AE73757A20EE2EFEEDF2
:10120000235401FF4206EA2AFAEB33FBEC33FCEDF0
:1012100033FDC3EE95764008EEC39576FE4302019A
:10122000D57AD98A6F8B708C718D728E7322788B80
:10123000E624D075F00AA4FA788CE624D02AFA784D
:101240008A8603BB2D04C3E49AFA757601C3E4646D
:10125000808AF063F08095F05029757A038A0374D0
:10126000F6257A401C0576E57A14247FF8E57A2481
:101270007FF98704A604772E1BEBFA6004057A80B9
:10128000DE8B02EA30E70D788086037881A603784A
:1012900080762E0AE578600AE57804FB2576F576F7
:1012A0008005300C020576787F8603E4BB2D0104AF
:1012B000FB70062007033008020576300503021391
:1012C00075300657EB600C75822DC0021211A5D047
:1012D00002801C30070C75822BC0021211A5D002AF
:1012E000800D30080A758220C0021211A5D0027844
:1012F000808604BC2E0C758230C0021211A5D0026B
:101300001577AC771577C3E5769C40030213B97562
:101310008230C0021211A5D00280E7AC771577C3E6
:10132000E5769C500C758220C0021211A5D0028077
:10133000EA787F8604BC2D0C75822DC0021211A59F
:10134000D002801C30070C75822BC0021211A5D070
:1013500002800D30080A758220C0021211A5D00249
:1013600078808604BC2E52758230C0021211A5D03E
:101370000215778044EB600E75822DC0021211A514
:10138000D0021577802030070E75822BC002121113
:10139000A5D0021577800F30080C758220C002128C
:1013A00011A5D002157778808603BB2E0C7582308C
:1013B000C0021211A5D0021577757A01C20EE57A26
:1013C000247FF88603BB4503021476BB2E348A03C0
:1013D000C3E464808BF063F08095F0500F75823029
:1013E000C0031211A5D0031B8B0280E48B02D20E26
:1013F000E5787038200C0302147675822E1211A540
:101400008074300E278A03EB30E71FC3E4648085C5
:1014100078F063F08095F0500C758230C0031211A3
:10142000A5D00315780B8B0280DD8B02300E0EC326
:10143000E464808578F063F08095F05021E57A24AB
:101440007FF886038B82C0021211A5D002300E0EE7
:10145000E57A247FF88603BB2E0280021578157783
:10146000C3E464808578F063F08095F04003200E3B
:1014700005057A0213BEC3E464808578F063F080CA
:1014800095F0500A7582301211A5157880E8300564
:101490000FAA771577EA60087582201211A580F1EE
:1014A00022E5787003300C0D74072578FAE577C3D0
:1014B0009AF5778006E57724FAF577757A00787FD4
:1014C0008602BA2B0F20070C787F7620200805753E
:1014D0007A010577200519AA77C3E464808AF0634E
:1014E000F08095F0500A7582201211A5157780E7DB
:1014F000C20EE57A247FF88602BA00028069BA45F6
:101500001F3001027665C3E464808578F063F08063
:1015100095F0500A7582301211A5157880E8D20E28
:10152000C3E57A9402E433FA7014EA700EC3E464FB
:10153000808578F063F08095F04003300E16E57AF0
:10154000247FF886028A821211A5E57A24FD5012C2
:101550001578800E7402B57A09300C0675822E1249
:1015600011A5057A0214F2300519AA77C3E4648044
:101570008AF063F08095F0500A7582201211A5154B
:101580007780E72285826D85836EE4F574F575AA10
:101590007BAB7CAC7D8A828B838CF0120CAEFD74AD
:1015A000012AF57BE43BF57C8C7DEDFA7003021B90
:1015B0002ABA25028003021B22C205C206C207C244
:1015C00008C209C20AC20BC20CC202C203C204751D
:1015D00076007577007578FFAB7BAC7CAD7D8B8238
:1015E0008C838DF0120CAEFAA3AB82AC838B7B8C18
:1015F0007C8D7DBA25078A821211A580928A06BE4B
:101600003000402E8A06EE24C6402774FFB57813BA
:10161000E57775F00AA4FEEA24D02EF57770BFD2E4
:101620000680BBE57875F00AA4FEEA24D02EF57892
:1016300080ACBA2E0A74FFB578A4757800809F8AB2
:1016400006BE6100400E8A06EE248540075302DF85
:10165000D2018002C201BA20028075BA23030216A9
:10166000DFBA2A030216E4BA2B02805FBA2D028089
:1016700055BA4202805FBA4303021729BA440302F3
:101680001864BA450302187EBA460302187ABA47AC
:1016900003021882BA4903021864BA4C02803BBAAA
:1016A0004E03021886BA4F0302186BBA5003021792
:1016B000FDBA530302174DBA5503021870BA580306
:1016C0000218750218B0D2050215DED2070215DE27
:1016D000D2080215DED20A0215DED20B0215DED2C6
:1016E0000C0215DE74FFB57820300A0BE57E14F885
:1016F000887E86770215DEE57E24FEF8887E8606E3
:10170000088607188E770215DE300A0BE57E14F87E
:10171000887E86780215DEE57E24FEF8887E8606C1
:10172000088607188E780215DE300A0AE57E14F85E
:10173000887E8602800FE57E24FEF8887E86030878
:101740008604188B028A821211A50218B5E57E2440
:10175000FDF8887E860308860408860518188B6FB6
:101760008C708D718B828C838DF0121CD2AB82AC0D
:10177000838B7974FFB5780385797820051DC3E5DF
:101780007995775016E577C39579F577AB77157727
:10179000EB60087582201211A580F1856F8285703B
:1017A000838571F0120CAEFBFA6029AB781578C313
:1017B000E464808BF063F08095F050188A821211F7
:1017C000A5AB6FAC70AD710BBB00010C8B6F8C7057
:1017D0008D7180C72005030218B5C3E57995774060
:1017E000030218B5E577C39579F577AB771577EBF5
:1017F00070030218B57582201211A580EEE57E24D3
:10180000FDF8887E860308860408860518188B6F05
:101810008C708D71E571FB30E7047A438013EB54D3
:101820006060047A50800AEB30E6047A4980027ADC
:10183000588A82C0021211A575823A1211A57582CA
:10184000301211A57582781211A5D002BA49028012
:101850000BBA500280068570821211D8856F8212F1
:1018600011D88051D20975760A804A75760880456C
:1018700075760A8040757610803BD2028037D2039D
:101880008033D204802FE57E24FDF8887E8603080D
:10189000860408860518188B6F8C708D718B828C6E
:1018A000838DF0E574121B46A3E575121B46800577
:1018B0008A821211A5200206200303300470E57EFF
:1018C00024FCF8887E8603088604088605088606B8
:1018D0001818188B6F8C708D718E72E56FE570E53E
:1018E00071E5728B828C838DF0EE121BB374FFB5A1
:1018F0007803757806300427747F5572FB8B73E587
:1019000073EB2BFB8B73E57130E70674014573F5C0
:1019100073E57324684006749925734002D203303E
:1019200003061214A102158F12122E02158FE576EE
:10193000700302158F7B84300A2BE57E14F8887EB5
:10194000E6FC3395E0FDFEFF8C6F8D708E718F721B
:1019500020095EAC6F7D007E007F008C6F8D708EE5
:10196000718F72804C300B1FE57E24FCF8887E86D8
:10197000040886050886060886071818188C6F8DD7
:10198000708E718F72802AE57E24FEF8887E860430
:1019900008860518ED3395E0FEFF8C6F8D708E7113
:1019A0008F7220090CAC6FAD707E007F008E718F3E
:1019B00072300C43E56F45704571457260397408AB
:1019C000B5760C758230C0031211A5D0038028743F
:1019D00010B57623758230C0031211A5D0033001F3
:1019E0000C758278C0031211A5D003800A75825845
:1019F000C0031211A5D003300925AC6FAD70AE71D4
:101A0000E572FF30E717C3E49CFCE49DFDE49EFE15
:101A1000E49FFF8C6F8D708E718F728002C209758A
:101A20007900D20D8B00757300C0001211EFD00049
:101A3000200D0DE573C4FCE6FD4CF618880380020A
:101A4000A6730579B20DE56F45704571457270D684
:101A50008803E577700375770120061A200517E5DE
:101A60007904FCC39577500E758220C0031211A52E
:101A7000D003157780E930090E75822DC00312114D
:101A8000A5D00315778024E579602030070E758294
:101A90002BC0031211A5D0031577800F30080C75E9
:101AA0008220C0031211A5D003157720051EAC7744
:101AB0001577C3E5799C50273006047C3080027C82
:101AC000208C82C0031211A5D00380E2C3E5799572
:101AD000775009E577C39579F57780037577008BA3
:101AE00000AB791579EB6022B20D200D0A08E6C42F
:101AF000540FFB8B7380078603740F5BF57385733C
:101B000082C0001211BFD00080D720050302158FBC
:101B1000AB771577EB700302158F7582201211A534
:101B200080EE8A821211A502158F857482857583D5
:101B300022AA82BA0A0810990280FB75990D1099A1
:101B40000280FB8A992220F71030F6118883A88240
:101B500020F507F6A88375830022F280F7F022FCB7
:101B6000ABF0AA83A982749EF582C2D1EC30E7164D
:101B7000D2D1E9F42401F9EAF43400FAEBF43400A8
:101B8000FBECF43400FC1210E70210987F9E121C4C
:101B9000FA30D1030210B9C3EF9582500974FFF5F2
:101BA000F0F583F58222790012116289828A838B93
:101BB000F0EC22C0E0F84582458345F07009F5F06D
:101BC000FBFCFDFE021C81E823A2F792E0F8A9824B
:101BD000AA83D2F7ABF07C007E07C374979840408D
:101BE00074FF2EFE740A89F0A4F985F082740A8AC3
:101BF000F0A4FA85F083740A8BF0A4FB740529F92C
:101C0000EA3582FAEB3583FB740035F0FCC3EC1344
:101C1000FCEB13FBEA13FAE913F908EC70EF80BA56
:101C2000E8C3947FF88B838EF0E4FBFCFDFEFF0895
:101C3000C3E933F9EA33FAE58333F583EB3BD4FBAD
:101C4000EC3CD4FCED3DD4FDEE3ED4FEEF3FD4FFA2
:101C5000602D05F074052BD4FBE43CD4FCE43DD4AA
:101C6000FDE43ED4FEE43FD4FF758204C3EF13FFCE
:101C7000EE13FEED13FDEC13FCEB13FBD582EDD858
:101C8000AF787FD0E020E704762B8002762D0879AC
:101C900006E7C4540F4430F608B90603762E08E769
:101CA000540F4430F60819B902E7764508E5F020EC
:101CB000E704762B8004762DF4040875F00A84443A
:101CC00030F608E5F04430F608E4F690007F75F051
:101CD0004022AA82AB83ACF07D007E008A828B8397
:101CE0008CF0120CAEFFA3AA82AB83EF60070DBD90
:101CF00000EA0E80E78D828E8322AA82AB83A2F750
:101D00003392D16002D2F7F582ACF02200000000DD
:00000001FF
