:1000000002000375818212010FE582600302006F16
:10001000780079007A007B007C007D00EC4D601C4C
:1000200088828983E493A3A882A9838A828B83F040
:10003000A3AA82AB831CBCFFE31D80E07582007520
:1000400083007C007D00EC4D600AE4F0A31CBCFF43
:10005000F51D80F27582007583007C007D00EC4DFB
:10006000600AE4F0A31CBCFFF51D80F212010E1221
:10007000041F80FE1B5B324A0041444320746573B9
:10008000742070726F6772616D0A46696C653A2000
:1000900025730A436F6D70696C65643A2025732C73
:1000A0002025730A0A00433A5C55736572735C320B
:1000B000393737385C4F6E6544726976655C4465E4
:1000C000736B746F705C7365636F6E645F79656189
:1000D000725C454C4543203239315C6C6162355C61
:1000E000656C65635F3239315F6C6162355C726586
:1000F000662E63004D61722020362032303234008B
:1001000031333A33323A333700252E3166002275C7
:10011000A7007597DE7597AD75FF8075EF0675A71B
:100120001075C12075A70075A90075A900E5A93053
:10013000E7FB75A90375A903E5A930E7FB43A41004
:1001400075E10175E20075E340759810758DE685DF
:100150008D8B53890F438920D28ED29975820022CC
:1001600075A700C2EF75B28075BC2075B91E75E821
:100170000075DF3F75B300D2EF22AA82438E40752F
:1001800092B87593FF8592948593957591047B0041
:10019000C3EB9A500BE59130E7FB53917F0B80F056
:1001A00075910022AA82AB837C007D00C3EC9AED9E
:1001B0009B502B7E00BE0400501D7582FAC002C009
:1001C00003C004C005C00612017AD006D005D004D1
:1001D000D003D0020E80DE0CBC00D10D80CE2253A5
:1001E00089F0438901C28C22AA828511F005F0743E
:1001F00001800225E0D5F0FBFB75A720BA00028044
:100200000ABA0102800FBA021E8014EBF4FA52F10E
:10021000EB42D48012EBF4FA52F2EB42D58008EBB9
:10022000F4FA52F3EB42CC75A700228582BBC2EDF3
:10023000D2EC30EDFD85BD8285BE832212022B12E9
:1002400008B2AA82AB83ACF0FDC002C003C004C0F8
:1002500005906C8B75F05374401208BEAA82AB8374
:10026000ACF0FDE58124FCF581E4C0E074FCC0E065
:10027000747FC0E07446C0E08A828B838CF0ED12FC
:100280000AA8AA82AB83ACF0FDE58124FCF5818A43
:10029000828B838CF0ED22D2A075822812017AC263
:1002A000A022AA828AE0A2E79290A2E69291A2E519
:1002B0009292A2E49293C0021202977582281201D0
:1002C0007AD0028AE0A2E39290A2E29291A2E19215
:1002D00092A2E09293020297AA82D2978A82120295
:1002E000A29000020201A4AA82C2978A821202A2EC
:1002F0009000050201A4C2A09000141201A475820E
:10030000331202E77582331202E77582321202E776
:100310007582281202E775820C1202E775820112BB
:1003200002E79000140201A4AA82AB83ACF074022D
:10033000B524047DC080027D808D82C002C003C0D0
:10034000041202E79000051201A4D004D003D002E9
:100350007D007E00ED2AFFEE3BF88C018F828883C2
:1003600089F0120896FF60208F82C002C003C0048B
:10037000C005C0061202D8D006D005D004D003D0E4
:10038000020DBD00CF0E80CC3000248D028E03C341
:10039000EA9410EB648094805015758220C002C0EE
:1003A000031202D8D003D0020ABA00E30B80E02285
:1003B000AA82AB83ACF07402B5250774C04526FD54
:1003C000800574804526FD8D82C002C003C00412E2
:1003D00002E7D004D003D0027D007E00ED2AFFEEBC
:1003E0003BF88C018F82888389F0120896FF602089
:1003F0008F82C002C003C004C005C0061202D8D05C
:1004000006D005D004D003D0020DBD00CF0E80CCA5
:1004100022C2EDD2EC30EDFD85BD8285BE83221275
:1004200002F61201DF9001F41201A47474C0E074AA
:1004300000C0E07480C0E01209DA158115811581D1
:100440007400C0E07401C0E07480C0E074F4C0E0E7
:100450007400C0E07480C0E074A6C0E07400C0E026
:100460007480C0E07479C0E07400C0E07480C0E0C3
:100470001209DAE58124F4F5817511027582021200
:1004800001E87511037582021201E8751104758285
:10049000021201E87511057582021201E875110159
:1004A0007582001201E87511067582001201E812CA
:1004B0000160758A00758C0075820012022BE5823E
:1004C0008583F045F070F175820012022BE582857C
:1004D00083F045F060F1D28C75820012022BE58228
:1004E0008583F045F070F1C28C858C82120961AA77
:1004F00082AB83ACF0FDC002C003C004C005900015
:100500000075F08074431208BE85825D85835E8528
:10051000F05FF560E58124FCF581AE8A7F008E8274
:100520008F83120A9BAE82AF83AAF0FBC006C0077E
:10053000C002C003855D82855E83855FF0E5601241
:10054000096C85825585835685F057F558E58124D9
:10055000FCF581E4C0E0C0E0C0E07440C0E0855537
:10056000828556838557F0E558120AA8AE82AF837C
:10057000AAF0FBE58124FCF581EBB2E78E828F8344
:100580008AF0120BC7858222C055C056C057C0588A
:1005900090F4FC75F0B274341208BEAA82AB83AC3E
:1005A000F0FDE58124FCF581C002C003C004C00554
:1005B000C002C003C004C00590000075F080743F05
:1005C000120AA885825985835A85F05BF55CE5811E
:1005D00024FCF581C059C05AC05BC05C7409C0E0FE
:1005E0007401C0E07480C0E07437C0E07400C0E003
:1005F0007440C0E0120A4AE58124F6F581752401B1
:10060000D20090003775F040120328D005D004D0F6
:1006100003D002758200C002C003C004C0051202EC
:100620002BE5828583F0D005D004D003D00245F0BD
:1006300070E1758200C002C003C004C00512022B25
:10064000E5828583F0D005D004D003D00245F06068
:10065000E1C002C003C004C00590000075F07A74C8
:10066000441208BEAA82AB83ACF0FDE58124FCF500
:1006700081E4C0E0C0E07480C0E07440C0E08A82E1
:100680008B838CF0ED120AA8AA82AB83ACF0FDE557
:100690008124FCF5818A828B838CF0ED120A90AA6A
:1006A00082AB83C002C0031201A475820012023C17
:1006B000AC82AD83AEF0FFD003D0028C278D288EA4
:1006C000298F2A758204C002C00312022BE582859D
:1006D00083F0D003D00245F070E9758204C002C0F7
:1006E0000312022BE5828583F0D003D00245F0602F
:1006F000E98A828B831201A475820412023C8582EE
:100700005D85835E85F05FF560855D2B855E2C855C
:100710005F2D85602EC027C028C029C02A9004F311
:1007200075F035743F1208BEAE82AF83AAF0FBE5C8
:100730008124FCF5818E2F8F308A318B32C05DC0D1
:100740005EC05FC0609004F375F035743F1208BE60
:10075000AA82AB83ACF0FDE58124FCF5818A338B62
:10076000348C358D36758A00758C007582041202C2
:100770002BE5828583F045F070F175820412022B1F
:10078000E5828583F045F060F1D280D28C758200DD
:1007900012022BE5828583F045F070F1758200121C
:1007A000022BE5828583F045F060F1C280C28C8522
:1007B0008C82120961AA82AB83ACF0FDC002C00337
:1007C000C004C00590000075F08074431208BE8517
:1007D000825D85835E85F05FF560E58124FCF581AF
:1007E000AE8A7F008E828F83120A9BAE82AF83AA6D
:1007F000F0FBC006C007C002C003855D82855E8332
:10080000855FF0E56012096CAA82AB83ACF0FDE570
:100810008124FCF581C002C003C004C00590C33E22
:1008200075F02E74391208BEAA82AB83ACF0FDE5D8
:100830008124FCF581C002C003C004C00590CCCD6A
:1008400075F0AC74411208BEAA82AB83ACF0FDE532
:100850008124FCF581C002C003C004C0057409C036
:10086000E07401C0E07480C0E07441C0E07400C076
:10087000E07440C0E0120A4AE58124F6F58175254E
:100880000275260090004175F0401203B09001F40B
:100890001201A40204B220F71430F6148883A8824F
:1008A00020F507E6A88375830022E280F7E493220F
:1008B000E022E4AC83AB82FAF9748E020BD8120CFE
:1008C00064BC0003020C03EF60FA30D502B2D1E53C
:1008D00083B4FF03020C19E582B4FF03020C19254F
:1008E0008340072482400B020C032483145003022C
:1008F0000C19F582EA8DF0A4A8F0EA8EF0A428F88D
:10090000E435F0F9EB8DF0A428E935F0F9E433CAC9
:100910008FF0A429F9EA35F0FAEBF88EF0A429F962
:10092000EA35F0FAE433FBEC8DF0A429F9EA35F06E
:10093000FAE43BFBE88FF0A42AFAEB35F0FBE43352
:10094000CCFD8EF0A42AFAEB35F0FBE43CFCED8FF5
:10095000F0A42BFBEC35F0FC20E703120C31020B6A
:10096000E2E4AC82FBFAF97486020BD8120C6479CB
:1009700000E583B58202800D5003120C92E583C31B
:100980009582120CACE5D0C465D020E117EA2DFAAF
:10099000EB3EFBEC3FFC50097401120CACEC4480C4
:1009A000FC020BE2C3EA9DFAEB9EFBEC9FFC500FAE
:1009B000C3E499F9E49AFAE49BFBE49CFCB2D112FB
:1009C0000C31020BE202167B85826F85837085F005
:1009D000718510729009C50210CEC008858108E5A6
:1009E0000824FBF572E50824FBF8866F088670087A
:1009F00086719009C51210CED00822AA82AB09AC2C
:100A00000AAD0B8B828C838DF0EA1216900509E4F7
:100A1000B50902050A2285820985830A85F00B85BE
:100A20000C6F850D70850E71850F729009FB121089
:100A3000CEAA82AB83AC09AD0AAE0B8C828D838EBD
:100A4000F0E41216908A828B8322C008858108E523
:100A50000824F8F572E50824FBF8860908860A08D8
:100A6000860BE50824F8F8866F0886700886719072
:100A700009FB1210CEAA82AB83AC09AD0AAE0B8C77
:100A8000828D838EF0E41216908A828B83D00822A6
:100A90007F8E1216ABF58385F08222AC83AB827A0F
:100AA000007900748E0216D9120C6430D502B2D1CE
:100AB000BF0009BC0003020C26020C19BC00030293
:100AC0000C03E583B4FF0BE582B4FF03020C26029E
:100AD0000C03E582B4FF03020C19C395835007246D
:100AE0007F400B020C032480145003020C19C0E059
:100AF000E4CCCBCAF98D118E128F13EF54F0C4F5EC
:100B0000147583068514F0EB84F582E9C4F9EAC410
:100B1000FAEBC4FBEC540FC47803D6FC18EBD6FBFD
:100B200018EAD6FA8582F0EDA4A8F0FD8582F0EEF1
:100B3000A428FEE435F0F88582F0EFA428FFE43520
:100B4000F0F8E99DF9EA9EFAEB9FFBEC98FCAD11F9
:100B5000AE12AF1330E7101582E92DF9EA3EFAEB39
:100B60003FFBE43CFC80EDC082D58398C3E933F9B8
:100B7000EA33FAEB33FBEC33FCC3E99DEA9EEB9FCF
:100B8000EC9400B3E413F9D002D0E0C44AFAD003E5
:100B9000D0E0C44BFBD004D0E0F5F0540FC44CFCC3
:100BA000D082158230F40FD3EC13FCEB13FBEA1365
:100BB000FAE913F90582E930E70A74012AFAE43BFD
:100BC000FBE43CFC020BFA7F861216ABF58222FC9A
:100BD000ABF0AA83A982749EC2D1F582120C3102B5
:100BE0000BE2B98003EA13B34010EA2401FAE43BB4
:100BF000FBE43CFC50047C800582BC000EBB000B77
:100C0000BA0008E4F5F0F583F58222A2D1E582135B
:100C10008CF092F78B838A8222E4F583F58275F05B
:100C200080F4A2D11322E4F583F58275F0C0747FBD
:100C3000227804EC7011E58224F8500AF582E4C9A8
:100C4000CACBFCD8EF22EC7820058220E713D582AE
:100C50000122C3E933F9EA33FAEB33FBEC33FCD876
:100C6000EA158222AA82AB83A2F73392D16002D224
:100C7000F7F582ACF0E58124F9F8E6FD08E6FE0818
:100C800086F008E6A2F73392D56002D2F7F583AF7B
:100C9000F022E582C583F582A2D133A2D592D11389
:100CA00092D5ECCFFCEBCEFBEACDFA226040F825E2
:100CB00082500274FFF582E824F8501ECCCBCAF9AA
:100CC000E4CC24F85014CBCAF9E4CB24F8500BCA76
:100CD000F9E4CA24F8500379002224086010F8C30C
:100CE000EC13FCEB13FBEA13FAE913F9D8F122AA8F
:100CF000827400C0E0740DC0E0C061C0628A8222CC
:100D00000568E4B56802056922AA8274302AFA24CB
:100D1000C6500A74072AFA3001034302208A82026D
:100D20000CEFE582FAC4540FF582C002120D09D00F
:100D300002740F5AF582020D09AA63AB64AC65AD6B
:100D400066AE67756E20EE2EFEED235401FF42065F
:100D5000EA2AFAEB33FBEC33FCED33FDC3EE956A84
:100D60004008EEC3956AFE430201D56ED98A638BB3
:100D7000648C658D668E6722787FE624D075F00AD4
:100D8000A4FA7880E624D02AFA787E8603BB2D0464
:100D9000C3E49AFA756A01C3E464808AF063F08060
:100DA00095F05029756E038A0374F6256E401C0574
:100DB0006AE56E142473F8E56E2473F98704A604BB
:100DC000772E1BEBFA6004056E80DE8B02EA30E7BB
:100DD0000D787486037875A6037874762E0AE56C10
:100DE000600AE56C04FB256AF56A8005300C020593
:100DF0006A78738603E4BB2D0104FB7006200703A9
:100E0000300802056A300503020EBF300657EB605A
:100E10000C75822DC002120CEFD002801C30070C22
:100E200075822BC002120CEFD002800D30080A75BB
:100E30008220C002120CEFD00278748604BC2E0C03
:100E4000758230C002120CEFD002156BAC6B156BC3
:100E5000C3E56A9C4003020F03758230C002120C86
:100E6000EFD00280E7AC6B156BC3E56A9C500C7544
:100E70008220C002120CEFD00280EA78738604BC94
:100E80002D0C75822DC002120CEFD002801C300791
:100E90000C75822BC002120CEFD002800D30080AB4
:100EA000758220C002120CEFD00278748604BC2E2A
:100EB00052758230C002120CEFD002156B8044EBE9
:100EC000600E75822DC002120CEFD002156B8020CF
:100ED00030070E75822BC002120CEFD002156B800A
:100EE0000F30080C758220C002120CEFD002156B77
:100EF00078748603BB2E0C758230C002120CEFD0C2
:100F000002156B756E01C20EE56E2473F88603BB85
:100F10004503020FC0BB2E348A03C3E464808BF008
:100F200063F08095F0500F758230C003120CEFD043
:100F3000031B8B0280E48B02D20EE56C7038200C10
:100F400003020FC075822E120CEF8074300E278AB8
:100F500003EB30E71FC3E46480856CF063F0809599
:100F6000F0500C758230C003120CEFD003156C0BDF
:100F70008B0280DD8B02300E0EC3E46480856CF042
:100F800063F08095F05021E56E2473F886038B8220
:100F9000C002120CEFD002300E0EE56E2473F886FC
:100FA00003BB2E028002156C156BC3E46480856C54
:100FB000F063F08095F04003200E05056E020F08E7
:100FC000C3E46480856CF063F08095F0500A75820C
:100FD00030120CEF156C80E830050FAA6B156BEA28
:100FE0006008758220120CEF80F122E56C700330EE
:100FF0000C0D7407256CFAE56BC39AF56B8006E55A
:101000006B24FAF56B756E0078738602BA2B0F208D
:10101000070C78737620200805756E01056B200596
:1010200019AA6BC3E464808AF063F08095F0500ADB
:10103000758220120CEF156B80E7C20EE56E2473EB
:10104000F88602BA00028069BA451F30010276654F
:10105000C3E46480856CF063F08095F0500A75827B
:1010600030120CEF156C80E8D20EC3E56E9402E4EA
:1010700033FA7014EA700EC3E46480856CF063F098
:101080008095F04003300E16E56E2473F886028AD0
:1010900082120CEFE56E24FD5012156C800E740266
:1010A000B56E09300C0675822E120CEF056E02101B
:1010B0003C300519AA6BC3E464808AF063F0809524
:1010C000F0500A758220120CEF156B80E7228582A2
:1010D00061858362E4F568F569AA6FAB70AC718ACB
:1010E000828B838CF0120896FD74012AF56FE43B25
:1010F000F5708C71EDFA7003021674BA2502800344
:1011000002166CC205C206C207C208C209C20AC2E0
:101110000BC20CC202C203C204756A00756B007573
:101120006CFFAB6FAC70AD718B828C838DF012084D
:1011300096FAA3AB82AC838B6F8C708D71BA250746
:101140008A82120CEF80928A06BE3000402E8A06F8
:10115000EE24C6402774FFB56C13E56B75F00AA446
:10116000FEEA24D02EF56B70BFD20680BBE56C750D
:10117000F00AA4FEEA24D02EF56C80ACBA2E0A74D4
:10118000FFB56CA4756C00809F8A06BE6100400E9E
:101190008A06EE248540075302DFD2018002C20195
:1011A000BA20028075BA2303021229BA2A03021256
:1011B0002EBA2B02805FBA2D028055BA4202805FA0
:1011C000BA4303021273BA44030213AEBA450302D0
:1011D00013C8BA46030213C4BA47030213CCBA4970
:1011E000030213AEBA4C02803BBA4E030213D0BACC
:1011F0004F030213B5BA5003021347BA5303021246
:1012000097BA55030213BABA58030213BF0213FA6E
:10121000D205021128D207021128D208021128D2C1
:101220000A021128D20B021128D20C02112874FFD5
:10123000B56C20300A0BE57214F88872866B0211C7
:1012400028E57224FEF888728606088607188E6BD9
:10125000021128300A0BE57214F88872866C0211AC
:1012600028E57224FEF888728606088607188E6CB8
:10127000021128300A0AE57214F888728602800F7B
:10128000E57224FEF888728603088604188B028AA9
:1012900082120CEF0213FFE57224FDF888728603B8
:1012A00008860408860518188B638C648D658B820C
:1012B0008C838DF012181CAB82AC838B6D74FFB5E0
:1012C0006C03856D6C20051DC3E56D956B5016E5AF
:1012D0006BC3956DF56BAB6B156BEB60087582207E
:1012E000120CEF80F18563828564838565F01208B6
:1012F00096FBFA6029AB6C156CC3E464808BF063D9
:10130000F08095F050188A82120CEFAB63AC64AD9C
:10131000650BBB00010C8B638C648D6580C7200559
:10132000030213FFC3E56D956B40030213FFE56BEA
:10133000C3956DF56BAB6B156BEB70030213FF750B
:101340008220120CEF80EEE57224FDF8887286038D
:1013500008860408860518188B638C648D65E5651E
:10136000FB30E7047A438013EB546060047A5080CA
:101370000AEB30E6047A4980027A588A82C0021267
:101380000CEF75823A120CEF758230120CEF7582F9
:1013900078120CEFD002BA4902800BBA50028006D4
:1013A000856482120D22856382120D228051D2093A
:1013B000756A0A804A756A088045756A0A804075B0
:1013C0006A10803BD2028037D2038033D204802F50
:1013D000E57224FDF88872860308860408860518DD
:1013E000188B638C648D658B828C838DF0E568121D
:1013F0001690A3E56912169080058A82120CEF20E0
:101400000206200303300470E57224FCF88872861B
:10141000030886040886050886061818188B638C4E
:10142000648D658E66E563E564E565E5668B828CB3
:10143000838DF0EE1216FD74FFB56C03756C0630EB
:101440000427747F5566FB8B67E567EB2BFB8B6787
:10145000E56530E70674014567F567E56724684090
:1014600006749925674002D203300306120FEB027F
:1014700010D9120D780210D9E56A70030210D97BD9
:1014800078300A2BE57214F88872E6FC3395E0FD9B
:10149000FEFF8C638D648E658F6620095EAC637D74
:1014A000007E007F008C638D648E658F66804C307B
:1014B0000B1FE57224FCF8887286040886050886EE
:1014C000060886071818188C638D648E658F6680F1
:1014D0002AE57224FEF88872860408860518ED3322
:1014E00095E0FEFF8C638D648E658F6620090CACE1
:1014F00063AD647E007F008E658F66300C43E563CC
:1015000045644565456660397408B56A0C75823076
:10151000C003120CEFD00380287410B56A237582C3
:1015200030C003120CEFD00330010C758278C00379
:10153000120CEFD003800A758258C003120CEFD052
:1015400003300925AC63AD64AE65E566FF30E7178F
:10155000C3E49CFCE49DFDE49EFEE49FFF8C638D50
:10156000648E658F668002C209756D00D20D8B0096
:10157000756700C000120D39D000200D0DE567C45D
:10158000FCE6FD4CF61888038002A667056DB20DD7
:10159000E56345644565456670D68803E56B700371
:1015A000756B0120061A200517E56D04FCC3956BC9
:1015B000500E758220C003120CEFD003156B80E92A
:1015C00030090E75822DC003120CEFD003156B800D
:1015D00024E56D602030070E75822BC003120CEFDE
:1015E000D003156B800F30080C758220C003120CDD
:1015F000EFD003156B20051EAC6B156BC3E56D9C1E
:1016000050273006047C3080027C208C82C003127C
:101610000CEFD00380E2C3E56D956B5009E56BC319
:10162000956DF56B8003756B008B00AB6D156DEBE5
:101630006022B20D200D0A08E6C4540FFB8B6780B0
:10164000078603740F5BF567856782C000120D097A
:10165000D00080D72005030210D9AB6B156BEB705F
:10166000030210D9758220120CEF80EE8A82120CD0
:10167000EF0210D985688285698322AA82BA0A0896
:1016800010990280FB75990D10990280FB8A9922AE
:1016900020F71030F6118883A88220F507F6A8837A
:1016A00075830022F280F7F0227F9E12184430D119
:1016B00003020C03C3EF9582500974FFF5F0F58324
:1016C000F582227900120CAC89828A838BF0EC229D
:1016D000FCABF0AA83A982749EF582C2D1EC30E7FC
:1016E00016D2D1E9F42401F9EAF43400FAEBF43427
:1016F00000FBECF43400FC120C31020BE2C0E0F809
:101700004582458345F07009F5F0FBFCFDFE0217AC
:10171000CBE823A2F792E0F8A982AA83D2F7ABF034
:101720007C007E07C3749798404074FF2EFE740AB5
:1017300089F0A4F985F082740A8AF0A4FA85F0830E
:10174000740A8BF0A4FB740529F9EA3582FAEB35AB
:1017500083FB740035F0FCC3EC13FCEB13FBEA13C2
:10176000FAE913F908EC70EF80BAE8C3947FF88BBC
:10177000838EF0E4FBFCFDFEFF08C3E933F9EA3396
:10178000FAE58333F583EB3BD4FBEC3CD4FCED3D35
:10179000D4FDEE3ED4FEEF3FD4FF602D05F074057E
:1017A0002BD4FBE43CD4FCE43DD4FDE43ED4FEE485
:1017B0003FD4FF758204C3EF13FFEE13FEED13FD5C
:1017C000EC13FCEB13FBD582EDD8AF7873D0E0209F
:1017D000E704762B8002762D087906E7C4540F447F
:1017E00030F608B90603762E08E7540F4430F608A1
:1017F00019B902E7764508E5F020E704762B800466
:10180000762DF4040875F00A844430F608E5F044B7
:1018100030F608E4F690007375F04022AA82AB839C
:10182000ACF07D007E008A828B838CF0120896FFDC
:10183000A3AA82AB83EF60070DBD00EA0E80E78D9F
:10184000828E8322AA82AB83A2F73392D16002D226
:10185000F7F582ACF022000000000000000000005C
:00000001FF
